:100000000C9436000C945E000C945E000C945E0020
:100010000C945E000C945E000C945E000C945E00E8
:100020000C945E000C945E000C945E000C945E00D8
:100030000C945E000C945E000C945E000C945E00C8
:100040000C9472050C945E000C94D9030C940B0470
:100050000C945E000C945E000C945E000C945E00A8
:100060000C945E000C945E0065023B0411241FBEDC
:10007000CFEFD8E0DEBFCDBF11E0A0E0B1E0EAE015
:10008000F0E102C005900D92A632B107D9F724E045
:10009000A6E2B1E001C01D92A23AB207E1F710E07A
:1000A000CCE6D0E004C02297FE010E94F007C836DB
:1000B000D107C9F70E947F040C9403080C94000038
:1000C0002898209A2C98249A089526E040E452E437
:1000D0006FE070E08CEF93E00C947703BF92CF92C7
:1000E000DF92EF92FF920F931F93CF93DF93C62F70
:1000F0002CE330E0B9010E94AD077B01FC015FEF0A
:100100005E9FC0015F9F900D1124B9010E94AD0751
:100110008B01E42FF0E0D0E02FEF30E0B9016C1B51
:100120007D0B6E9FC0016F9F900D7E9F900D1124DF
:10013000B9010E94AD07C62ED62E0C9FC0010D9F9F
:10014000900D1C9F900D1124B9010E94AD07C901AB
:10015000861B970BBC016E9FC0016F9F900D7E9F09
:10016000900D1124B9010E94AD07B62EB901601B94
:10017000710B6C9FC0016D9F900D7C9F900D1124A1
:10018000B9010E94AD07E901C61BD70BCE9FC00184
:10019000CF9F900DDE9F900D1124B9010E94AD07F5
:1001A000F62FE62FC70164E170E00E94AD078230B0
:1001B000910599F02CF40097F1F0019759F006C0E1
:1001C0008430910591F06CF0059799F0D12CE0E026
:1001D00040E011C0E42F4B2D0EC0E42F4C2DDF2E3C
:1001E0000AC0EB2DD42E4C2D06C0D42E4F2FEC2D53
:1001F00002C0EC2DDB2C642F7E2F8D2DDF91CF9153
:100200001F910F91FF90EF90DF90CF90BF900895D6
:1002100067FF02C0289A01C028982C9A2C9866FF84
:1002200002C0289A01C028982C9A2C9865FF02C019
:10023000289A01C028982C9A2C9864FF02C0289A0A
:1002400001C028982C9A2C9863FF02C0289A01C0FC
:1002500028982C9A2C9862FF02C0289A01C02898EE
:100260002C9A2C9861FF02C0289A01C028982C9AD9
:100270002C9860FF02C0289A01C028982C9A2C98CC
:1002800008956F927F929F92AF92BF92CF92DF922A
:10029000EF92FF920F931F93CF93DF9300D0CDB7D0
:1002A000DEB73C01F62E6A012A8379830E94600042
:1002B00060E0C3010E94080160E0C3010E940801E0
:1002C00060E0C3010E94080160E0C3010E940801D0
:1002D0000F2D7981172FE12CF12C2A81206EEC143F
:1002E000FD04E1F0F801B080A1809280622FC3018B
:1002F0002A830E940801692DC3010E9408016A2D0A
:10030000C3010E9408016B2DC3010E940801FFEF89
:10031000EF1AFF0A0D5F1F4F2A81E1CF8EE0E80E32
:10032000F11C84E0F694E7948A95E1F700E010E090
:100330000E151F0539F060E0C3010E9408010F5F30
:100340001F4FF6CF0F900F90DF91CF911F910F911C
:10035000FF90EF90DF90CF90BF90AF909F907F90F5
:100360006F900C9460008F929F92AF92BF92CF9249
:10037000DF92EF92FF921F93CF93DF9380910E0154
:1003800090910F010E946C02182F80930E019093A0
:100390000F0120910A0130910B0140910C01509105
:1003A0000D016091260170912701809128019091A3
:1003B00029010E9404066B017C0120E030E040EF3F
:1003C00053E40E94460718164CF0C0922601D092C2
:1003D0002701E0922801F092290108C0109226011D
:1003E000109227011092280110922901C0E0D0E05C
:1003F0008090260190902701A0902801B0902901BB
:10040000BE0180E090E00E9494066B017C019B019C
:10041000AC01C501B4010E94460718168CF4A7016F
:100420009601C501B4010E94030620910601309196
:10043000070140910801509109010E944A0718C024
:10044000A5019401C701B6010E940306209106018F
:100450003091070140910801509109010E944A071B
:100460009B01AC0160E070E883EB93E40E9403061B
:100470000E946806CB017E01EE0CFF1CEC0EFD1EF7
:100480009701265D3E4F79014FEF6FEF0E946E009E
:10049000F7016083718382832196C03FD10509F003
:1004A000A7CF212F40EF50E06AE271E08AEF93E09E
:1004B000DF91CF911F91FF90EF90DF90CF90BF9091
:1004C000AF909F908F900C94410184E191E09093C4
:1004D000FB038093FA030895CF92DF92EF92FF928D
:1004E000CF93DF93EC018CEF93E00E9494021816F7
:1004F000190654F48CEF93E00E946F056B017C01A8
:1005000085E1C816D10410F0CE0107C08CEF93E04E
:100510000E94AD020A9739F7C601DF91CF91FF9093
:10052000EF90DF90CF900895FC01818D228D90E0B7
:10053000805C9F4F821B91098F7399270895FC015E
:10054000918D828D981731F0828DE80FF11D858D88
:1005500090E008958FEF9FEF0895FC01918D828DBB
:10056000981761F0828DDF01A80FB11D5D968C9107
:10057000928D9F5F9F73928F90E008958FEF9FEF12
:10058000089581E394E0892B49F080E090E0892B85
:1005900029F00E94310481110C9400000895FC019F
:1005A000848DDF01A80FB11DA35ABF4F2C91848DFC
:1005B00090E001968F739927848FA689B7892C9331
:1005C000A089B1898C9180648C93938D848D9813CC
:1005D00006C00288F389E02D80818F7D8083089595
:1005E000CF93DF93EC01888D8823C9F0EA89FB89DA
:1005F000808185FD05C0A889B9898C9186FD0FC0D1
:100600000FB607FCF5CF808185FFF2CFA889B989A5
:100610008C9185FFEDCFCE010E94CF02E7CFDF9115
:10062000CF910895CF92DF92FF920F931F93CF93B4
:10063000DF931F92CDB7DEB76C0181E0D6015896EB
:100640008C9358975B969C915B975C968C915C978A
:10065000981307C05096ED91FC915197808185FDCC
:100660002EC0F601038D10E00F5F1F4F0F7311278F
:10067000F02EF601848DF81211C00FB607FCF9CFE9
:10068000D6015096ED91FC915197808185FFF1CF75
:10069000C60169830E94CF026981EBCF838DE80F89
:1006A000F11DE35AFF4F6083D6015B960C935B9775
:1006B0005296ED91FC915397808180620CC0D601D7
:1006C0005696ED91FC91579760835096ED91FC9171
:1006D000519780818064808381E090E00F90DF916A
:1006E000CF911F910F91FF90DF90CF900895BF920F
:1006F000CF92DF92EF92FF92CF93DF93EC016A01EA
:100700007B01B22EE889F98982E08083411581EE70
:10071000580761057105A1F060E079E08DE390E094
:10072000A70196010E94C1072150310941095109D1
:100730005695479537952795211580E1380798F00C
:10074000E889F989108260E874E88EE190E0A701F9
:1007500096010E94C107215031094109510956955E
:10076000479537952795EC85FD853083EE85FF8588
:100770002083188EEC89FD89B082EA89FB8980810B
:1007800080618083EA89FB89808188608083EA892F
:10079000FB89808180688083EA89FB8980818F7DE5
:1007A0008083DF91CF91FF90EF90DF90CF90BF904B
:1007B00008951F920F920FB60F9211242F938F93CB
:1007C0009F93EF93FF93E0910C04F0910D048081CF
:1007D000E0911204F091130482FD12C09081809187
:1007E00015048F5F8F7320911604821751F0E091EA
:1007F0001504F0E0E450FC4F958F8093150401C080
:100800008081FF91EF919F918F912F910F900FBE5B
:100810000F901F9018951F920F920FB60F921124F0
:100820002F933F934F935F936F937F938F939F93F8
:10083000AF93BF93EF93FF938CEF93E00E94CF02AF
:10084000FF91EF91BF91AF919F918F917F916F91A8
:100850005F914F913F912F910F900FBE0F901F907E
:1008600018958CEF93E00E94940221E0892B09F403
:1008700020E0822F08951092FF031092FE0388EE6D
:1008800093E0A0E0B0E08093000490930104A09373
:100890000204B09303048AE191E09093FD038093F6
:1008A000FC0385EC90E0909309048093080484ECA9
:1008B00090E090930B0480930A0480EC90E0909376
:1008C0000D0480930C0481EC90E090930F048093CE
:1008D0000E0482EC90E0909311048093100486EC57
:1008E00090E09093130480931204109215041092D8
:1008F00016041092170410921804089508950E9487
:10090000C8050E947E040E946500C1ECD2E00E94EE
:10091000B3012097E1F30E94C102F9CFCF92DF9299
:10092000EF92FF920F931F93CF93DF936C017A01A5
:10093000EB01E60EF71E00E010E0CE15DF0561F0DA
:100940006991D601ED91FC910190F081E02DC601F5
:100950000995080F191FF1CFC801DF91CF911F91A1
:100960000F91FF90EF90DF90CF9008950F931F931A
:10097000CF93DF93EC010E94BC05688779878A8753
:100980009B87E881F9810084F185E02DCE010995EE
:1009900097FF15C00E94BC05088519852A853B85EF
:1009A000601B710B820B930B0C811D812E813F818B
:1009B000601771078207930720F38FEF9FEFDF9196
:1009C000CF911F910F910895CF93DF93EC01CE014A
:1009D0000E94B60497FD11C08D32910571F09C0103
:1009E000205331092A30310540F0E881F981068031
:1009F000F781E02DCE010995EACFDF91CF910895DF
:100A0000CF92DF92FF920F931F93CF93DF9300D08B
:100A100000D0CDB7DEB76C01062F0E94E404FC01C4
:100A200097FD4BC020E030E0A901F12C112707FD14
:100A30001095E017F107E9F0ED32F105C1F0CF01B3
:100A4000C0970A97B0F4AAE0B0E00E94E3079B01C8
:100A5000AC01CF01AA2797FDA095BA2F280F391F07
:100A60004A1F5B1F205331094109510902C0FF246D
:100A7000F394D601ED91FC910680F781E02DC6013B
:100A800029833A834B835C830995C6010E94B6048F
:100A9000FC01C09729813A814B815C810A9748F219
:100AA000E017F10731F2FF2061F066277727CB01CD
:100AB000621B730B840B950B06C060E070E0CB01EA
:100AC00002C0CA01B9010F900F900F900F90DF91F3
:100AD000CF911F910F91FF90DF90CF90089561E02B
:100AE0000C9400051F920F920FB60F9211242F93B2
:100AF0003F938F939F93AF93BF9380919A0490916C
:100B00009B04A0919C04B0919D043091990423E032
:100B1000230F2D3720F40196A11DB11D05C026E835
:100B2000230F0296A11DB11D2093990480939A046E
:100B300090939B04A0939C04B0939D0480919E0489
:100B400090919F04A091A004B091A1040196A11DD1
:100B5000B11D80939E0490939F04A093A004B09332
:100B6000A104BF91AF919F918F913F912F910F90D1
:100B70000FBE0F901F9018952FB7F89460919A04AC
:100B800070919B0480919C0490919D042FBF0895C7
:100B9000789484B5826084BD84B5816084BD85B558
:100BA000826085BD85B5816085BDEEE6F0E080811F
:100BB00081608083E1E8F0E0108280818260808340
:100BC000808181608083E0E8F0E0808181608083C3
:100BD000E1EBF0E0808184608083E0EBF0E08081F5
:100BE00081608083EAE7F0E0808184608083808197
:100BF000826080838081816080838081806880833F
:100C00001092C10008955058BB27AA270ED004C1E6
:100C1000F5D030F0FAD020F031F49F3F11F41EF4FB
:100C2000EAC00EF4E095E7FBE0C0E92F06D180F3BF
:100C3000BA17620773078407950718F071F49EF5D9
:100C40001EC10EF4E0950B2EBA2FA02D0B01B90199
:100C500090010C01CA01A0011124FF27591B99F032
:100C6000593F50F4503E68F11A16F040A22F232F3E
:100C7000342F4427585FF3CF469537952795A7958E
:100C8000F0405395C9F77EF41F16BA0B620B730B35
:100C9000840BBAF09150A1F0FF0FBB1F661F771FA6
:100CA000881FC2F70EC0BA0F621F731F841F48F45B
:100CB000879577956795B795F7959E3F08F0B3CFE1
:100CC0009395880F08F09927EE0F979587950895CB
:100CD000BCD088F09F5790F0B92F9927B751A0F05A
:100CE000D1F0660F771F881F991F1AF0BA95C9F7C0
:100CF00012C0B13081F0C3D0B1E00895C0C0672FF9
:100D0000782F8827B85F39F0B93FCCF3869577956F
:100D10006795B395D9F73EF4909580957095619558
:100D20007F4F8F4F9F4F0895E89409C097FB3EF483
:100D300090958095709561957F4F8F4F9F4F992328
:100D4000A9F0F92F96E9BB279395F69587957795A6
:100D50006795B795F111F8CFFAF4BB0F11F460FF66
:100D60001BC06F5F7F4F8F4F9F4F16C0882311F0BE
:100D700096E911C0772321F09EE8872F762F05C0D2
:100D8000662371F096E8862F70E060E02AF09A956D
:100D9000660F771F881FDAF7880F9695879597F962
:100DA0000895990F0008550FAA0BE0E8FEEF1616FC
:100DB0001706E807F907C0F012161306E407F5074F
:100DC00098F0621B730B840B950B39F40A2661F0C3
:100DD000232B242B252B21F408950A2609F4A14066
:100DE000A6958FEF811D811D089597F99F6780E873
:100DF00070E060E008959FEF80EC089500240A946D
:100E00001616170618060906089500240A941216E5
:100E10001306140605060895092E0394000C11F418
:100E2000882352F0BB0F40F4BF2B11F460FF04C0C5
:100E30006F5F7F4F8F4F9F4F089557FD9058440F1E
:100E4000551F59F05F3F71F04795880F97FB991F29
:100E500061F09F3F79F087950895121613061406E6
:100E6000551FF2CF4695F1DF08C016161706180673
:100E7000991FF1CF86957105610508940895E8944E
:100E8000BB2766277727CB0197F908958ADF08F4F7
:100E90008FEF08950BD0C0CFB1DF28F0B6DF18F088
:100EA000952309F0A2CFA7CF1124EACFC6DFA0F384
:100EB000959FD1F3950F50E0551F629FF001729FEF
:100EC000BB27F00DB11D639FAA27F00DB11DAA1F0E
:100ED000649F6627B00DA11D661F829F2227B00D5B
:100EE000A11D621F739FB00DA11D621F839FA00DE6
:100EF000611D221F749F3327A00D611D231F849F36
:100F0000600D211D822F762F6A2F11249F5750408C
:100F10008AF0E1F088234AF0EE0FFF1FBB1F661F27
:100F2000771F881F91505040A9F79E3F510570F0E0
:100F30005CCFA6CF5F3FECF3983EDCF386957795C8
:100F40006795B795F795E7959F5FC1F7FE2B880FDB
:100F5000911D9695879597F90895AA1BBB1B51E1A2
:100F600007C0AA1FBB1FA617B70710F0A61BB70B19
:100F7000881F991F5A95A9F780959095BC01CD01BE
:100F80000895A1E21A2EAA1BBB1BFD010DC0AA1FCA
:100F9000BB1FEE1FFF1FA217B307E407F50720F0E2
:100FA000A21BB30BE40BF50B661F771F881F991F5D
:100FB0001A9469F760957095809590959B01AC01A6
:100FC000BD01CF0108950E94F407A59F900DB49F25
:100FD000900DA49F800D911D11240895EE0FFF1F09
:100FE0000590F491E02D0994A29FB001B39FC00138
:100FF000A39F700D811D1124911DB29F700D811D45
:0A1000001124911D0895F894FFCF0C
:10100A000000A204800077773F3F9A99993E140026
:10101A000000000041010000000012038E04940247
:06102A00AD029F02F0027E
:00000001FF
