:100000000C9436000C945E000C945E000C945E0020
:100010000C945E000C945E000C945E000C945E00E8
:100020000C945E000C945E000C945E000C945E00D8
:100030000C945E000C945E000C945E000C945E00C8
:100040000C9483040C945E000C94A6030C94D803C7
:100050000C945E000C945E000C945E000C945E00A8
:100060000C945E000C945E005A02080411241FBE1A
:10007000CFEFD8E0DEBFCDBF11E0A0E0B1E0E0EE11
:10008000FDE002C005900D92AE31B107D9F724E032
:10009000AEE1B1E001C01D92AA39B207E1F710E06C
:1000A000CCE6D0E004C02297FE010E94EA06C836E2
:1000B000D107C9F70E944C040C94EE060C94000082
:1000C0002898209A2C98249A089526E040E855E232
:1000D00060E070E084EF93E00C944403BF92CF9211
:1000E000DF92EF92FF920F931F93CF93DF93C62F70
:1000F0002CE330E0B9010E94B2067B01FC015FEF06
:100100005E9FC0015F9F900D1124B9010E94B2064D
:100110008B01E42FF0E0D0E02FEF30E0B9016C1B51
:100120007D0B6E9FC0016F9F900D7E9F900D1124DF
:10013000B9010E94B206C62ED62E0C9FC0010D9F9B
:10014000900D1C9F900D1124B9010E94B206C901A7
:10015000861B970BBC016E9FC0016F9F900D7E9F09
:10016000900D1124B9010E94B206B62EB901601B90
:10017000710B6C9FC0016D9F900D7C9F900D1124A1
:10018000B9010E94B206E901C61BD70BCE9FC00180
:10019000CF9F900DDE9F900D1124B9010E94B206F1
:1001A000F62FE62FC70164E170E00E94B2068230AC
:1001B000910599F02CF40097F1F0019759F006C0E1
:1001C0008430910591F06CF0059799F0D12CE0E026
:1001D00040E011C0E42F4B2D0EC0E42F4C2DDF2E3C
:1001E0000AC0EB2DD42E4C2D06C0D42E4F2FEC2D53
:1001F00002C0EC2DDB2C642F7E2F8D2DDF91CF9153
:100200001F910F91FF90EF90DF90CF90BF900895D6
:1002100067FF02C0289A01C028982C9A2C9866FF84
:1002200002C0289A01C028982C9A2C9865FF02C019
:10023000289A01C028982C9A2C9864FF02C0289A0A
:1002400001C028982C9A2C9863FF02C0289A01C0FC
:1002500028982C9A2C9862FF02C0289A01C02898EE
:100260002C9A2C9861FF02C0289A01C028982C9AD9
:100270002C9860FF02C0289A01C028982C9A2C98CC
:1002800008956F927F929F92AF92BF92CF92DF922A
:10029000EF92FF920F931F93CF93DF9300D0CDB7D0
:1002A000DEB73C01F62E6A012A8379830E94600042
:1002B00060E0C3010E94080160E0C3010E940801E0
:1002C00060E0C3010E94080160E0C3010E940801D0
:1002D0000F2D7981172FE12CF12C2A81206EEC143F
:1002E000FD04E1F0F801B080A1809280622FC3018B
:1002F0002A830E940801692DC3010E9408016A2D0A
:10030000C3010E9408016B2DC3010E940801FFEF89
:10031000EF1AFF0A0D5F1F4F2A81E1CF8EE0E80E32
:10032000F11C84E0F694E7948A95E1F700E010E090
:100330000E151F0539F060E0C3010E9408010F5F30
:100340001F4FF6CF0F900F90DF91CF911F910F911C
:10035000FF90EF90DF90CF90BF90AF909F907F90F5
:100360006F900C9460008F929F92AF92BF92CF9249
:10037000DF92EF92FF920F931F93CF93DF93209121
:1003800004013091050140910601509107016091EF
:100390001E0170911F0180912001909121010E9406
:1003A00009056B017C0120E030E040EF53E40E943E
:1003B0004B0618164CF0C0921E01D0921F01E0921D
:1003C0002001F092210108C010921E0110921F011D
:1003D0001092200110922101C0E0D0E080901E0117
:1003E00090901F01A0902001B0902101BE0180E0FB
:1003F00090E00E9499056B017C019B01AC01C50155
:10040000B4010E944B0618168CF4A7019601C50191
:10041000B4010E9408052091000130910101409132
:100420000201509103010E944F0618C0A5019401DA
:10043000C701B6010E940805209100013091010119
:1004400040910201509103010E944F069B01AC01B3
:1004500060E070E883EB93E40E9408050E946D055C
:10046000CB018E01000F111F0C0F1D1F0E5D1E4FC3
:100470004FEF6FEF0E946E00F801608371838283FB
:100480002196C03FD10509F0A9CF24E140EF50E00B
:1004900062E271E082EF93E0DF91CF911F910F91C3
:1004A000FF90EF90DF90CF90BF90AF909F908F9094
:1004B0000C9441018CE091E09093F3038093F2035C
:1004C0000895FC01818D228D90E0805C9F4F821BFE
:1004D00091098F7399270895FC01918D828D98174A
:1004E00031F0828DE80FF11D858D90E008958FEF3A
:1004F0009FEF0895FC01918D828D981761F0828D98
:10050000DF01A80FB11D5D968C91928D9F5F9F7347
:10051000928F90E008958FEF9FEF08958EEF93E014
:10052000892B49F080E090E0892B29F00E94FE039E
:1005300081110C9400000895FC01848DDF01A80F47
:10054000B11DA35ABF4F2C91848D90E001968F73FB
:100550009927848FA689B7892C93A089B1898C911A
:1005600080648C93938D848D981306C00288F389E0
:10057000E02D80818F7D80830895CF93DF93EC0100
:10058000888D8823C9F0EA89FB89808185FD05C0B3
:10059000A889B9898C9186FD0FC00FB607FCF5CFED
:1005A000808185FFF2CFA889B9898C9185FFEDCF35
:1005B000CE010E949C02E7CFDF91CF910895CF92A8
:1005C000DF92FF920F931F93CF93DF931F92CDB7CC
:1005D000DEB76C0181E0D60158968C9358975B96F4
:1005E0009C915B975C968C915C97981307C0509692
:1005F000ED91FC915197808185FD2EC0F601038D10
:1006000010E00F5F1F4F0F731127F02EF601848D3E
:10061000F81211C00FB607FCF9CFD6015096ED9134
:10062000FC915197808185FFF1CFC60169830E94BB
:100630009C026981EBCF838DE80FF11DE35AFF4FD8
:100640006083D6015B960C935B975296ED91FC917B
:100650005397808180620CC0D6015696ED91FC9133
:10066000579760835096ED91FC91519780818064FB
:10067000808381E090E00F90DF91CF911F910F91E7
:10068000FF90DF90CF900895BF92CF92DF92EF92CC
:10069000FF92CF93DF93EC016A017B01B22EE889D0
:1006A000F98982E08083411581EE58076105710563
:1006B000A1F060E079E08DE390E0A70196010E944F
:1006C000C60621503109410951095695479537957C
:1006D0002795211580E1380798F0E889F98910827B
:1006E00060E874E88EE190E0A70196010E94C606DA
:1006F000215031094109510956954795379527955C
:10070000EC85FD853083EE85FF852083188EEC898E
:10071000FD89B082EA89FB89808180618083EA89D2
:10072000FB89808188608083EA89FB898081806879
:100730008083EA89FB8980818F7D8083DF91CF91DF
:10074000FF90EF90DF90CF90BF9008951F920F928F
:100750000FB60F9211242F938F939F93EF93FF93D4
:10076000E0910404F09105048081E0910A04F09185
:100770000B0482FD12C0908180910D048F5F8F73F6
:1007800020910E04821751F0E0910D04F0E0EC503E
:10079000FC4F958F80930D0401C08081FF91EF91F4
:1007A0009F918F912F910F900FBE0F901F901895D2
:1007B0001F920F920FB60F9211242F933F934F93D6
:1007C0005F936F937F938F939F93AF93BF93EF93B9
:1007D000FF9384EF93E00E949C02FF91EF91BF9101
:1007E000AF919F918F917F916F915F914F913F91C9
:1007F0002F910F900FBE0F901F90189584EF93E0EC
:100800000E94610221E0892B09F420E0822F0895E3
:100810001092F7031092F60388EE93E0A0E0B0E0A8
:100820008093F8039093F903A093FA03B093FB032A
:1008300082E191E09093F5038093F40385EC90E0DE
:10084000909301048093000484EC90E0909303045F
:100850008093020480EC90E090930504809304045C
:1008600081EC90E0909307048093060482EC90E082
:10087000909309048093080486EC90E090930B0415
:1008800080930A0410920D0410920E0410920F042B
:1008900010921004089508950E94CD040E944B0404
:1008A0000E946500CEE8D2E00E94B3012097E1F3F8
:1008B0000E948E02F9CFCF92DF92EF92FF920F93B8
:1008C0001F93CF93DF936C017A01EB01E60EF71EC5
:1008D00000E010E0CE15DF0561F06991D601ED91E1
:1008E000FC910190F081E02DC6010995080F191FB8
:1008F000F1CFC801DF91CF911F910F91FF90EF9041
:10090000DF90CF9008951F920F920FB60F9211248F
:100910002F933F938F939F93AF93BF9380919204B4
:1009200090919304A0919404B09195043091910416
:1009300023E0230F2D3720F40196A11DB11D05C022
:1009400026E8230F0296A11DB11D209391048093E8
:10095000920490939304A0939404B093950480918F
:10096000960490919704A0919804B09199040196EF
:10097000A11DB11D8093960490939704A0939804B1
:10098000B0939904BF91AF919F918F913F912F9117
:100990000F900FBE0F901F901895789484B58260C9
:1009A00084BD84B5816084BD85B5826085BD85B513
:1009B000816085BDEEE6F0E0808181608083E1E8C2
:1009C000F0E01082808182608083808181608083FA
:1009D000E0E8F0E0808181608083E1EBF0E08081FD
:1009E00084608083E0EBF0E0808181608083EAE7CF
:1009F000F0E0808184608083808182608083808158
:100A0000816080838081806880831092C100089516
:100A10005058BB27AA270ED004C1F5D030F0FAD029
:100A200020F031F49F3F11F41EF4EAC00EF4E0957B
:100A3000E7FBE0C0E92F06D180F3BA17620773071E
:100A40008407950718F071F49EF51EC10EF4E09529
:100A50000B2EBA2FA02D0B01B90190010C01CA0178
:100A6000A0011124FF27591B99F0593F50F4503E23
:100A700068F11A16F040A22F232F342F4427585F15
:100A8000F3CF469537952795A795F0405395C9F72D
:100A90007EF41F16BA0B620B730B840BBAF09150E5
:100AA000A1F0FF0FBB1F661F771F881FC2F70EC084
:100AB000BA0F621F731F841F48F487957795679557
:100AC000B795F7959E3F08F0B3CF9395880F08F040
:100AD0009927EE0F979587950895BCD088F09F577A
:100AE00090F0B92F9927B751A0F0D1F0660F771F7A
:100AF000881F991F1AF0BA95C9F712C0B13081F05A
:100B0000C3D0B1E00895C0C0672F782F8827B85FA1
:100B100039F0B93FCCF3869577956795B395D9F7BA
:100B20003EF490958095709561957F4F8F4F9F4FC4
:100B30000895E89409C097FB3EF4909580957095D0
:100B400061957F4F8F4F9F4F9923A9F0F92F96E919
:100B5000BB279395F695879577956795B795F1118E
:100B6000F8CFFAF4BB0F11F460FF1BC06F5F7F4F2B
:100B70008F4F9F4F16C0882311F096E911C077233D
:100B800021F09EE8872F762F05C0662371F096E846
:100B9000862F70E060E02AF09A95660F771F881F15
:100BA000DAF7880F9695879597F90895990F0008B9
:100BB000550FAA0BE0E8FEEF16161706E807F9072F
:100BC000C0F012161306E407F50798F0621B730BCA
:100BD000840B950B39F40A2661F0232B242B252B4B
:100BE00021F408950A2609F4A140A6958FEF811DEE
:100BF000811D089597F99F6780E870E060E008958F
:100C00009FEF80EC089500240A9416161706180624
:100C10000906089500240A94121613061406050600
:100C20000895092E0394000C11F4882352F0BB0F91
:100C300040F4BF2B11F460FF04C06F5F7F4F8F4FF4
:100C40009F4F089557FD9058440F551F59F05F3F2F
:100C500071F04795880F97FB991F61F09F3F79F0DE
:100C600087950895121613061406551FF2CF469560
:100C7000F1DF08C0161617061806991FF1CF8695E2
:100C80007105610508940895E894BB2766277727C6
:100C9000CB0197F908958ADF08F48FEF08950BD000
:100CA000C0CFB1DF28F0B6DF18F0952309F0A2CF4E
:100CB000A7CF1124EACFC6DFA0F3959FD1F3950FFC
:100CC00050E0551F629FF001729FBB27F00DB11DD0
:100CD000639FAA27F00DB11DAA1F649F6627B00D60
:100CE000A11D661F829F2227B00DA11D621F739F49
:100CF000B00DA11D621F839FA00D611D221F749F57
:100D00003327A00D611D231F849F600D211D822F9D
:100D1000762F6A2F11249F5750408AF0E1F08823E4
:100D20004AF0EE0FFF1FBB1F661F771F881F9150F1
:100D30005040A9F79E3F510570F05CCFA6CF5F3FB2
:100D4000ECF3983EDCF3869577956795B795F79524
:100D5000E7959F5FC1F7FE2B880F911D96958795AC
:100D600097F90895AA1BBB1B51E107C0AA1FBB1F1F
:100D7000A617B70710F0A61BB70B881F991F5A9527
:100D8000A9F780959095BC01CD010895A1E21A2E96
:100D9000AA1BBB1BFD010DC0AA1FBB1FEE1FFF1F1F
:100DA000A217B307E407F50720F0A21BB30BE40B6F
:100DB000F50B661F771F881F991F1A9469F76095B6
:100DC0007095809590959B01AC01BD01CF01089570
:100DD000EE0FFF1F0590F491E02D0994F894FFCFDA
:100DE00077773F3F9A99993E00000000410100004B
:0E0DF0000000DF025B0461027A026C02BD02A9
:00000001FF
