:100000000C9435000C945D000C945D000C945D0024
:100010000C945D000C945D000C945D000C945D00EC
:100020000C945D000C945D000C945D000C945D00DC
:100030000C945D000C945D000C945D000C945D00CC
:100040000C9474010C945D000C945D000C945D00A4
:100050000C945D000C945D000C945D000C945D00AC
:100060000C945D000C945D006D0111241FBECFEF58
:10007000D8E0DEBFCDBF11E0A0E0B1E0EAEBF4E0F4
:1000800002C005900D92A630B107D9F723E0A6E093
:10009000B1E001C01D92A33EB207E1F710E0CAE64D
:1000A000D0E004C02297FE010E945702C836D10753
:1000B000C9F70E9445020C945B020C94000028983A
:1000C000209A2C98249A089567FF02C0289A01C0AC
:1000D00028982C9A2C9866FF02C0289A01C028986C
:1000E0002C9A2C9865FF02C0289A01C028982C9A57
:1000F0002C9864FF02C0289A01C028982C9A2C984A
:1001000063FF02C0289A01C028982C9A2C9862FF9D
:1001100002C0289A01C028982C9A2C9861FF02C02E
:10012000289A01C028982C9A2C9860FF02C0289A1F
:1001300001C028982C9A2C9808956F927F929F92D4
:10014000AF92BF92CF92DF92EF92FF920F931F93E5
:10015000CF93DF9300D0CDB7DEB73C01F62E6A0116
:100160002A8379830E945F0060E0C3010E946400DB
:1001700060E0C3010E94640060E0C3010E9464006B
:1001800060E0C3010E9464000F2D7981172FE12CDC
:10019000F12C2A81206EEC14FD04E1F0F801B0800E
:1001A000A1809280622FC3012A830E946400692D7E
:1001B000C3010E9464006A2DC3010E9464006B2D7C
:1001C000C3010E946400FFEFEF1AFF0A0D5F1F4F8B
:1001D0002A81E1CF8EE0E80EF11C84E0F694E794EA
:1001E0008A95E1F700E010E00E151F0539F060E098
:1001F000C3010E9464000F5F1F4FF6CF0F900F9056
:10020000DF91CF911F910F91FF90EF90DF90CF90F2
:10021000BF90AF909F907F906F900C945F00109272
:10022000D7031092D603E8E0F1E08FEFDF011297D9
:100230008C9311968C938083339691E0E83FF90775
:10024000A9F72AE040EF50E066E071E088ED93E026
:100250000C949D008091D6039091D703FC01EE0F82
:10026000FF1FE80FF91FEA5FFE4F10821182128212
:100270000196803F910528F49093D7038093D6038D
:1002800004C01092D7031092D6038091D6039091A8
:10029000D7039C01215B3F4F203F310510F0815A6D
:1002A00001C0815B90E0FC01EE0FFF1FE80FF91F1A
:1002B000EA5FFE4F8FEF8083818382832AE040EFE5
:1002C00050E066E071E088ED93E00E949D0064E1FB
:1002D00070E080E090E00C94E10184E091E0909384
:1002E000D9038093D80308951F920F920FB60F92EF
:1002F00011242F933F938F939F93AF93BF9380913C
:10030000DB039091DC03A091DD03B091DE0330911B
:10031000DA0323E0230F2D3720F40196A11DB11D30
:1003200005C026E8230F0296A11DB11D2093DA0314
:100330008093DB039093DC03A093DD03B093DE0393
:100340008091DF039091E003A091E103B091E2037B
:100350000196A11DB11D8093DF039093E003A0934C
:10036000E103B093E203BF91AF919F918F913F91D1
:100370002F910F900FBE0F901F9018953FB7F894D4
:100380008091DF039091E003A091E103B091E2033B
:1003900026B5A89B05C02F3F19F00196A11DB11DE0
:1003A0003FBF6627782F892F9A2F620F711D811DFD
:1003B000911D42E0660F771F881F991F4A95D1F75C
:1003C0000895CF92DF92EF92FF92CF93DF936B016C
:1003D0007C010E94BE01EB01C114D104E104F104CF
:1003E00089F00E9454020E94BE016C1B7D0B683E86
:1003F000734090F381E0C81AD108E108F108C851B0
:10040000DC4FEACFDF91CF91FF90EF90DF90CF905C
:100410000895789484B5826084BD84B5816084BD7C
:1004200085B5826085BD85B5816085BDEEE6F0E06D
:10043000808181608083E1E8F0E0108280818260C9
:100440008083808181608083E0E8F0E0808181604A
:100450008083E1EBF0E0808184608083E0EBF0E07A
:10046000808181608083EAE7F0E08081846080831E
:1004700080818260808380818160808380818068C8
:1004800080831092C100089508950E9409020E947D
:1004900044020E940F01C0E0D0E00E942A01209790
:1004A000E1F30E940000F9CF0895EE0FFF1F0590C1
:0A04B000F491E02D0994F894FFCFB9
:0604BA00000000009D009F
:00000001FF
