:100000000C9436000C945E000C945E000C945E0020
:100010000C945E000C945E000C945E000C945E00E8
:100020000C945E000C945E000C945E000C945E00D8
:100030000C945E000C945E000C945E000C945E00C8
:100040000C94B2010C945E000C94D3030C94050440
:100050000C945E000C945E000C945E000C945E00A8
:100060000C945E000C945E008301350411241FBEC5
:10007000CFEFD8E0DEBFCDBF11E0A0E0B1E0E2E617
:10008000FBE002C005900D92AE31B107D9F724E034
:10009000AEE1B1E001C01D92A839B207E1F710E06E
:1000A000CCE6D0E004C02297FE010E949C05C83631
:1000B000D107C9F70E9479040C94AF050C94000095
:1000C0002898209A2C98249A089567FF02C0289AAD
:1000D00001C028982C9A2C9866FF02C0289A01C06B
:1000E00028982C9A2C9865FF02C0289A01C028985D
:1000F0002C9A2C9864FF02C0289A01C028982C9A48
:100100002C9863FF02C0289A01C028982C9A2C983A
:1001100062FF02C0289A01C028982C9A2C9861FF8F
:1001200002C0289A01C028982C9A2C9860FF02C01F
:10013000289A01C028982C9A2C9808956F927F9243
:100140009F92AF92BF92CF92DF92EF92FF920F9366
:100150001F93CF93DF9300D0CDB7DEB73C01F62ECF
:100160006A012A8379830E94600060E0C3010E94D3
:10017000650060E0C3010E94650060E0C3010E9469
:10018000650060E0C3010E9465000F2D7981172F83
:10019000E12CF12C2A81206EEC14FD04E1F0F80131
:1001A000B080A1809280622FC3012A830E946500E3
:1001B000692DC3010E9465006A2DC3010E9465007C
:1001C0006B2DC3010E946500FFEFEF1AFF0A0D5F60
:1001D0001F4F2A81E1CF8EE0E80EF11C84E0F694F7
:1001E000E7948A95E1F700E010E00E151F0539F05D
:1001F00060E0C3010E9465000F5F1F4FF6CF0F90B4
:100200000F90DF91CF911F910F91FF90EF90DF90B2
:10021000CF90BF90AF909F907F906F900C946000B4
:1002200026E040E452E46FE070E08BEF93E00E9440
:1002300071031092EF031092EE03E0E2F1E08FEF12
:10024000DF0112978C9311968C938083339692E002
:10025000E031F907A9F72091060140EF50E06EE187
:1002600071E080EF93E00C949E00809106019091E4
:1002700007010E948A018093060190930701409133
:10028000EE035091EF03FA01EE0FFF1FE40FF51F8D
:10029000E25EFE4F1082118212824F5F5F4F403F3D
:1002A000510528F45093EF034093EE0304C01092DD
:1002B000EF031092EE034091EE035091EF03BA0169
:1002C000615B7F4F603F710510F0415A01C0415B97
:1002D00050E0FA01EE0FFF1FE40FF51FE25EFE4F44
:1002E0009FEF908391839283282F40EF50E06EE13F
:1002F00071E080EF93E00E949E0064E170E080E096
:1003000090E00C942B028CE091E09093F1038093A9
:10031000F0030895CF92DF92EF92FF92CF93DF9395
:10032000EC018BEF93E00E948E021816190654F42C
:100330008BEF93E00E9469056B017C0185E1C81693
:10034000D10410F0CE0107C08BEF93E00E94A7020A
:100350000A9739F7C601DF91CF91FF90EF90DF90B8
:10036000CF9008951F920F920FB60F9211242F93E2
:100370003F938F939F93AF93BF938091F30390919B
:10038000F403A091F503B091F6033091F20323E05A
:10039000230F2D3720F40196A11DB11D05C026E8BD
:1003A000230F0296A11DB11D2093F2038093F30346
:1003B0009093F403A093F503B093F6038091F703B1
:1003C0009091F803A091F903B091FA030196A11D51
:1003D000B11D8093F7039093F803A093F903B093B2
:1003E000FA03BF91AF919F918F913F912F910F9001
:1003F0000FBE0F901F9018952FB7F8946091F303DC
:100400007091F4038091F5039091F6032FBF089546
:100410003FB7F8948091F7039091F803A091F90306
:10042000B091FA0326B5A89B05C02F3F19F001969D
:10043000A11DB11D3FBF6627782F892F9A2F620F0C
:10044000711D811D911D42E0660F771F881F991F46
:100450004A95D1F70895CF92DF92EF92FF92CF9312
:10046000DF936B017C010E940802EB01C114D104EF
:10047000E104F10489F00E946C050E9408026C1BE3
:100480007D0B683E734090F381E0C81AD108E10803
:10049000F108C851DC4FEACFDF91CF91FF90EF9088
:1004A000DF90CF900895789484B5826084BD84B540
:1004B000816084BD85B5826085BD85B5816085BD5F
:1004C000EEE6F0E0808181608083E1E8F0E0108278
:1004D000808182608083808181608083E0E8F0E0B9
:1004E000808181608083E1EBF0E0808184608083A3
:1004F000E0EBF0E0808181608083EAE7F0E08081DA
:100500008460808380818260808380818160808339
:100510008081806880831092C1000895FC01818DE4
:10052000228D90E0805C9F4F821B91098F739927E9
:100530000895FC01918D828D981731F0828DE80F1E
:10054000F11D858D90E008958FEF9FEF0895FC01D8
:10055000918D828D981761F0828DDF01A80FB11DFA
:100560005D968C91928D9F5F9F73928F90E008951E
:100570008FEF9FEF08958BE294E0892B49F080E0A4
:1005800090E0892B29F00E942B0481110C9400002B
:100590000895FC01848DDF01A80FB11DA35ABF4F40
:1005A0002C91848D90E001968F739927848FA68972
:1005B000B7892C93A089B1898C9180648C93938D99
:1005C000848D981306C00288F389E02D80818F7D89
:1005D00080830895CF93DF93EC01888D8823C9F041
:1005E000EA89FB89808185FD05C0A889B9898C913C
:1005F00086FD0FC00FB607FCF5CF808185FFF2CFD7
:10060000A889B9898C9185FFEDCFCE010E94C902DE
:10061000E7CFDF91CF910895CF92DF92FF920F93B2
:100620001F93CF93DF931F92CDB7DEB76C0181E0AC
:10063000D60158968C9358975B969C915B975C96E5
:100640008C915C97981307C05096ED91FC9151974F
:10065000808185FD2EC0F601038D10E00F5F1F4FD6
:100660000F731127F02EF601848DF81211C00FB60A
:1006700007FCF9CFD6015096ED91FC9151978081FE
:1006800085FFF1CFC60169830E94C9026981EBCF62
:10069000838DE80FF11DE35AFF4F6083D6015B960F
:1006A0000C935B975296ED91FC91539780818062F9
:1006B0000CC0D6015696ED91FC91579760835096E9
:1006C000ED91FC91519780818064808381E090E07E
:1006D0000F90DF91CF911F910F91FF90DF90CF90FE
:1006E0000895BF92CF92DF92EF92FF92CF93DF9364
:1006F000EC016A017B01B22EE889F98982E08083EE
:10070000411581EE580761057105A1F060E079E0BF
:100710008DE390E0A70196010E946D0521503109FB
:10072000410951095695479537952795211580E13F
:10073000380798F0E889F989108260E874E88EE15A
:1007400090E0A70196010E946D05215031094109F1
:1007500051095695479537952795EC85FD8530834A
:10076000EE85FF852083188EEC89FD89B082EA89A9
:10077000FB89808180618083EA89FB898081886030
:100780008083EA89FB89808180688083EA89FB898C
:1007900080818F7D8083DF91CF91FF90EF90DF90FC
:1007A000CF90BF9008951F920F920FB60F92112411
:1007B0002F938F939F93EF93FF93E0910B04F0910E
:1007C0000C048081E0911104F091120482FD12C0AA
:1007D0009081809114048F5F8F732091150482178C
:1007E00051F0E0911404F0E0E550FC4F958F8093B8
:1007F000140401C08081FF91EF919F918F912F91FF
:100800000F900FBE0F901F9018951F920F920FB66A
:100810000F9211242F933F934F935F936F937F9386
:100820008F939F93AF93BF93EF93FF938BEF93E0DF
:100830000E94C902FF91EF91BF91AF919F918F915B
:100840007F916F915F914F913F912F910F900FBECC
:100850000F901F9018958BEF93E00E948E0221E07D
:10086000892B09F420E0822F08951092FE03109244
:10087000FD0388EE93E0A0E0B0E08093FF03909347
:100880000004A0930104B093020482E191E09093EC
:10089000FC038093FB0385EC90E090930804809325
:1008A000070484EC90E090930A048093090480ECA0
:1008B00090E090930C0480930B0481EC90E0909373
:1008C0000E0480930D0482EC90E0909310048093CA
:1008D0000F0486EC90E09093120480931104109220
:1008E000140410921504109216041092170408951F
:1008F00008950E9453020E9478040E941001CBEBDD
:10090000D2E00E9435012097E1F30E94BB02F9CFAB
:10091000CF92DF92EF92FF920F931F93CF93DF93CB
:100920006C017A01EB01E60EF71E00E010E0CE1537
:10093000DF0561F06991D601ED91FC910190F081A4
:10094000E02DC6010995080F191FF1CFC801DF91ED
:10095000CF911F910F91FF90EF90DF90CF9008956E
:100960000F931F93CF93DF93EC010E94FC016887E4
:1009700079878A879B87E881F9810084F185E02D5A
:10098000CE01099597FF15C00E94FC0108851985C5
:100990002A853B85601B710B820B930B0C811D819B
:1009A0002E813F81601771078207930720F38FEF35
:1009B0009FEFDF91CF911F910F910895CF93DF9318
:1009C000EC01CE010E94B00497FD11C08D3291055B
:1009D00071F09C01205331092A30310540F0E88143
:1009E000F9810680F781E02DCE010995EACFDF91EC
:1009F000CF910895CF92DF92FF920F931F93CF93E1
:100A0000DF9300D000D0CDB7DEB76C01062F0E9477
:100A1000DE04FC0197FD4BC020E030E0A901F12C81
:100A2000112707FD1095E017F107E9F0ED32F10508
:100A3000C1F0CF01C0970A97B0F4AAE0B0E00E94DD
:100A40008F059B01AC01CF01AA2797FDA095BA2F76
:100A5000280F391F4A1F5B1F2053310941095109D3
:100A600002C0FF24F394D601ED91FC910680F7813A
:100A7000E02DC60129833A834B835C830995C60127
:100A80000E94B004FC01C09729813A814B815C81AE
:100A90000A9748F2E017F10731F2FF2061F066276C
:100AA0007727CB01621B730B840B950B06C060E0AC
:100AB00070E0CB0102C0CA01B9010F900F900F90F6
:100AC0000F90DF91CF911F910F91FF90DF90CF900A
:100AD000089561E00C94FA040895A1E21A2EAA1B6D
:100AE000BB1BFD010DC0AA1FBB1FEE1FFF1FA217DE
:100AF000B307E407F50720F0A21BB30BE40BF50BDB
:100B0000661F771F881F991F1A9469F76095709563
:100B1000809590959B01AC01BD01CF0108950E9485
:100B2000A005A59F900DB49F900DA49F800D911DD1
:100B300011240895EE0FFF1F0590F491E02D099404
:100B4000A29FB001B39FC001A39F700D811D11240E
:100B5000911DB29F700D811D1124911D0895F8946F
:020B6000FFCFC5
:100B62000000980480000A00000000009E000000BF
:0E0B720000000C0388048E02A7029902EA021A
:00000001FF
