:100000000C9436000C945E000C945E000C945E0020
:100010000C945E000C945E000C945E000C945E00E8
:100020000C945E000C945E000C945E000C945E00D8
:100030000C945E000C945E000C945E000C945E00C8
:100040000C940F060C945E000C9430080C9462081B
:100050000C945E000C945E000C945E000C945E00A8
:100060000C945E000C945E002305920811241FBEC0
:10007000CFEFD8E0DEBFCDBF11E0A0E0B1E0EAEF06
:10008000F4E102C005900D92A632B107D9F724E041
:10009000A6E2B1E001C01D92AC3CB207E1F710E06E
:1000A000CCE6D0E004C02297FE010E94680AC83660
:1000B000D107C9F70E94D6080C947B0A0C94000063
:1000C00080E090E00895CF93DF9300D000D000D07F
:1000D000CDB7DEB7AB01DC01ED91FC910190F08171
:1000E000E02D19821A821B821C821D821E829E01B3
:1000F0002F5F3F4FBE016C5F7F4F099526960FB66D
:10010000F894DEBF0FBECDBFDF91CF91089526E0FA
:1001100040E855E260E070E08FE294E00E94CE0794
:1001200080913901811145C010922B0110922A0152
:100130008FEF80932E0180932F0180933001809365
:100140003101809332018093330181E08093340147
:10015000109236011092350110922D0110922C014F
:1001600080911D0490911E04892B31F488E291E066
:1001700090931E0480931D04E0911B04F0911C04D5
:10018000309721F088E291E09583848388E291E0C2
:1001900090931C0480931B048CE091E090932901C0
:1001A00080932801109238011092370181E08093EA
:1001B000390120E030E040EF50E061E471E088E296
:1001C00091E00E94E80484E580931F040895E1E42F
:1001D000F1E03AEF2081239F212D20832181239F6D
:1001E000212D21832281239F212D228311243396C7
:1001F00084E0E131F80771F70895FF920F931F93A0
:10020000CF93DF9300D01F92CDB7DEB70E94EC05ED
:1002100066E071E08FE294E00E94230901E411E0BE
:10022000FF24FA948091270191E0980F9093270181
:100230008983FA82FB82B801CE0101960E943605BD
:1002400060911F048FE194E00E9420040E94E70067
:100250006AE070E080E090E00E9488060D5F1F4F2A
:1002600084E001311807F1F666E071E08FE294E076
:100270000E94230900E010E0FF24FA9480912701F6
:1002800091E0980F909327018983FA82FB82B8014D
:10029000625F7B4FCE0101960E94360560911F047C
:1002A0008FE194E00E9420040E94E7006AE070E081
:1002B00080E090E00E9488060350110900338DEF22
:1002C0001807E1F60F900F900F90DF91CF911F91DB
:1002D0000F91FF900895DC018D919C91009739F06A
:1002E000DC01ED91FC910190F081E02D09940895DD
:1002F000DC018D919C91009739F0DC01ED91FC912E
:100300000280F381E02D09940895209A249A0F9693
:100310000C94780187FF02C0289A01C028982C9A73
:100320002C9886FF02C0289A01C028982C9A2C98F5
:1003300085FF02C0289A01C028982C9A2C9884FF27
:1003400002C0289A01C028982C9A2C9883FF02C0DA
:10035000289A01C028982C9A2C9882FF02C0289ACB
:1003600001C028982C9A2C9881FF02C0289A01C0BD
:1003700028982C9A2C9880FF02C0289A01C02898AF
:100380002C9A2C98089580E00E948A0180E00E94B7
:100390008A0180E00E948A0180E00C948A01CF9358
:1003A000DF9397FD4F96EC0185E0D595C7958A952B
:1003B000E1F78FEF0E948A0180E00E948A0180E0CD
:1003C0000E948A0180E00E948A01219790F7DF91C4
:1003D000CF910895FF920F931F93CF93DF93EC017A
:1003E000809126018F5F982F97709093260180FD52
:1003F00002C080E001C080E891FD8064947009F043
:10040000806290E1F92EF80E20E030E000E011E08B
:10041000FE01E20FF31F6285662331F070E0C80130
:100420000E94060A6F5F01C060E067834F2D469F00
:10043000412D11244483662311F0615067832F5F9F
:100440003F4F2330310521F7DF91CF911F910F915D
:10045000FF900895AF92BF92CF92DF92EF92FF92FA
:100460000F931F93CF93DF93CDB7DEB72F970FB6C0
:10047000F894DEBF0FBECDBF6C018A01F901DC012B
:100480001C968C917A8369835C834B8390819B87D4
:1004900091819C8792819D87813029F4CE010196BC
:1004A0000E94EA0106C01A86198618861F821E82DB
:1004B0001D821E86BFE0CB0ED11CC6010E946B01BF
:1004C0000E94C301E12CF12CE016F1060CF04EC0A5
:1004D000E981FA812281222329F03F81230F08F448
:1004E0002FEF01C020E03D85239F212D11248FEFA8
:1004F0002F870E948A012F85822F0E948A01E9811D
:10050000FA812181222329F03E81230F08F42FEF65
:1005100001C020E03C85239F212D1124A22EB12C67
:10052000BA2CAA242081222329F03D81230F08F42C
:100530002FEF01C020E03B85239F212D1124A22A0B
:100540008B2D0E948A018A2D0E948A0188859D81B7
:10055000891B8D8389859E81891B8E838A859F81D6
:10056000891B8F838FEFE81AF80AAECFC8010E946B
:10057000CF01C6010E9478012F960FB6F894DEBF16
:100580000FBECDBFDF91CF911F910F91FF90EF90E4
:10059000DF90CF90BF90AF900895AF92BF92CF926F
:1005A000DF92EF92FF920F931F93CF93DF93CDB71C
:1005B000DEB72F970FB6F894DEBF0FBECDBF6C012C
:1005C0008A01F901DC011C968C917A8369835C8332
:1005D0004B8390819B8791819C8792819D878130FD
:1005E00029F4CE0101960E94EA0106C01A861986F6
:1005F00018861F821E821D8283E08E87BFE0CB0E8D
:10060000D11CC6010E946B010E94C301E12CF12C98
:10061000E016F1060CF05BC0E981FA812281222309
:1006200029F03F81230F08F42FEF01C020E03D8522
:10063000239F212D11248FEF2F870E948A012F8560
:10064000822F0E948A01E981FA812181222329F0E7
:100650003E81230F08F42FEF01C020E03C85239F4B
:10066000212D1124A22EB12CBA2CAA2420812223C0
:1006700029F03D81230F08F42FEF01C020E03B85D6
:10068000239F212D1124A22A8B2D0E948A018A2DBD
:100690000E948A018E8529813A81280F311D3A8373
:1006A00029832B813C81215031093C832B83888510
:1006B0009D81891B8D8389859E81891B8E838A8577
:1006C0009F81891B8F838FEFE81AF80AA1CFC80199
:1006D0000E94CF01C6010E9478012F960FB6F894B0
:1006E000DEBF0FBECDBFDF91CF911F910F91FF9065
:1006F000EF90DF90CF90BF90AF9008958F929F9230
:10070000AF92BF92EF92FF920F931F93CF93DF931D
:10071000EC01188219821A824423B9F1E0E0F0E07A
:100720008B010A5F1F4F7B0189E0E80EF11C842ECC
:10073000912CA12CB12CD801AE0FBF1F2C91D70149
:10074000AE0FBF1F6C912223E1F06623D1F030E0A1
:1007500040E050E02F5F3F4F4F4F5F4F70E080E031
:1007600090E06F5F7F4F8F4F9F4F0E94E2099B0188
:10077000AC01C501B4010E94E209DE01AE0FBF1F4A
:100780008C933196E330F105B1F6CE01DF91CF9134
:100790001F910F91FF90EF90BF90AF909F908F901F
:1007A0000895CF92DF92EF92FF92CF93DF93EC0107
:1007B00080911504909116049C012F5F3F4F309358
:1007C000160420931504861797079CF10E9459067A
:1007D0009B01AC01E0911504F091160488EE93E0C2
:1007E000E89FB001E99F700DF89F700D11248827D4
:1007F00077FD8095982FC0901104D0901204E0905E
:100800001304F09014042C193D094E095F090E944D
:100810001A0A3A83298310921604109215040E9432
:1008200059066093110470931204809313049093FB
:100830001404DF91CF91FF90EF90DF90CF90089557
:10084000AF92BF92CF92DF92EF92FF920F931F93DE
:10085000CF93DF9300D01F92CDB7DEB78C01B62EB9
:10086000F80183819481A581B681892B8A2B8B2BFA
:10087000D1F00E946506C0901704D0901804E09053
:100880001904F0901A046C197D098E099F09D8018A
:100890001396CD90DD90ED90FC9016976C157D052C
:1008A0008E059F05E8F20E94650660931704709319
:1008B00018048093190490931A04E0901D04F0909A
:1008C0001E04E114F10451F1F701A484D80111963A
:1008D0008D919C9112978436910508F41486D70166
:1008E000ED91FC91C280D3804B2DB701CE010196D2
:1008F0000E947E03F70145855685628173819E01C2
:100900002F5F3F4FC701F6010995D7011C96AC92A6
:100910001C971496ED90FC901597D3CF69E170E089
:10092000C8010E94D1030F900F900F90DF91CF91DB
:100930001F910F91FF90EF90DF90CF90BF90AF90FD
:100940000895CF92DF92EF92FF920F931F93CF9370
:10095000DF93EC014423F1F06115710581F19B01F6
:1009600040E050E060E472E48FE090E00E943C0AD6
:10097000CB80DC80ED80FE8089019A010C151D057D
:100980002E053F0510F4970186010B831C832D83F0
:100990003E8315C06115710571F09B0140E050E088
:1009A00060E472E48FE090E00E943C0A2B833C8379
:1009B0004D835E8304C01B821C821D821E82DF91D8
:1009C000CF911F910F91FF90EF90DF90CF900895FE
:1009D000CF92DF92EF92FF920F931F93CF93DF930B
:1009E000EC016B018A017901121613061CF07A01E1
:1009F00000E010E0E881F9810480F581E02DCE016E
:100A00000995C801880F991F800F911F8C0D9D1D9E
:100A10009B838A83FE86ED86E881F9810084F185D7
:100A2000E02DCE01099541E0BC018FE194E00E94E8
:100A3000A104CE01DF91CF911F910F91FF90EF9014
:100A4000DF90CF9008958FEF80931F0410922104C0
:100A5000109220040895FC012081222321F0269F7A
:100A6000212D09F02F5FFC0120830895FF920F9341
:100A70001F93CF93DF9300D000D0CDB7DEB7FC013A
:100A80008B014081F1805281842F8F71880F880FF4
:100A9000880F282F35E5239F212D1124342F307402
:100AA000942F907247FD25C031110EC0911106C0E0
:100AB000822F80958B832A8319823FC08BEA8B8398
:100AC0002B5A2A83198239C091110DC0382F4AEA56
:100AD000349F312D11249BEA931B9B8325552A8338
:100AE000198280E02AC01B8280E0822F80958A8351
:100AF00012C0311112C091110BC01B82282F3AEA8B
:100B0000239F212D11248BEA821B8A832B5A03C039
:100B10002B831A822095298310C0911106C085E588
:100B2000820F8B831A828BEA06C08BEA820F8B833B
:100B30001A8280E085E5821B89832FEFF21601F18E
:100B40006F2DCE0103965C830E942B056F2DCE0185
:100B500002960E942B056F2DCE0101960E942B0557
:100B600011246F2D6095669F612D11248B81860F56
:100B70008B838A81860F8A838981860F89835C8132
:100B80005F3FC9F0F12C2F2D552321F0559F212DCA
:100B900009F02F5FF22E622FCE0103960E942B05E3
:100BA0006F2DCE0102960E942B056F2DCE0101966E
:100BB0000E942B0511248B81F80180838A81818317
:100BC000898182830F900F900F900F90DF91CF91CA
:100BD0001F910F91FF900895CF92DF92EF92FF92B5
:100BE0008FE294E00E94EB06181619069CF48FE23F
:100BF00094E00E94DE096B017C0183E5C816D104F4
:100C000048F48FE294E00E9404070A9749F7C092E3
:100C10001F04E6CFFF90EF90DF90CF9008951F92D2
:100C20000F920FB60F9211242F933F938F939F93A0
:100C3000AF93BF938091270490912804A091290439
:100C4000B0912A043091260423E0230F2D3720F49D
:100C50000196A11DB11D05C026E8230F0296A11D16
:100C6000B11D209326048093270490932804A09319
:100C70002904B0932A0480912B0490912C04A09114
:100C80002D04B0912E040196A11DB11D80932B045B
:100C900090932C04A0932D04B0932E04BF91AF9198
:100CA0009F918F913F912F910F900FBE0F901F90AA
:100CB00018952FB7F89460912704709128048091BB
:100CC000290490912A042FBF08953FB7F89480918A
:100CD0002B0490912C04A0912D04B0912E0426B5E4
:100CE000A89B05C02F3F19F00196A11DB11D3FBF64
:100CF0006627782F892F9A2F620F711D811D911DF4
:100D000042E0660F771F881F991F4A95D1F7089513
:100D1000CF92DF92EF92FF92CF93DF936B017C0132
:100D20000E946506EB01C114D104E104F10489F0CD
:100D30000E94E1090E9465066C1B7D0B683E7340B2
:100D400090F381E0C81AD108E108F108C851DC4FDE
:100D5000EACFDF91CF91FF90EF90DF90CF90089591
:100D6000789484B5826084BD84B5816084BD85B586
:100D7000826085BD85B5816085BDEEE6F0E080814D
:100D800081608083E1E8F0E010828081826080836E
:100D9000808181608083E0E8F0E0808181608083F1
:100DA000E1EBF0E0808184608083E0EBF0E0808123
:100DB00081608083EAE7F0E08081846080838081C5
:100DC000826080838081816080838081806880836D
:100DD0001092C1000895FC01818D228D90E0805C0D
:100DE0009F4F821B91098F7399270895FC01918D64
:100DF000828D981731F0828DE80FF11D858D90E07E
:100E000008958FEF9FEF0895FC01918D828D9817C3
:100E100061F0828DDF01A80FB11D5D968C91928DDE
:100E20009F5F9F73928F90E008958FEF9FEF0895DB
:100E300088E898E0892B49F080E090E0892B29F040
:100E40000E94880881110C9400000895FC01848D93
:100E5000DF01A80FB11DA35ABF4F2C91848D90E0E4
:100E600001968F739927848FA689B7892C93A089BF
:100E7000B1898C9180648C93938D848D981306C076
:100E80000288F389E02D80818F7D80830895CF9340
:100E9000DF93EC01888D8823C9F0EA89FB89808182
:100EA00085FD05C0A889B9898C9186FD0FC00FB654
:100EB00007FCF5CF808185FFF2CFA889B9898C9195
:100EC00085FFEDCFCE010E942607E7CFDF91CF91BE
:100ED0000895CF92DF92FF920F931F93CF93DF93EA
:100EE0001F92CDB7DEB76C0181E0D60158968C9386
:100EF00058975B969C915B975C968C915C97981346
:100F000007C05096ED91FC915197808185FD2EC0D0
:100F1000F601038D10E00F5F1F4F0F731127F02EA6
:100F2000F601848DF81211C00FB607FCF9CFD60177
:100F30005096ED91FC915197808185FFF1CFC601CC
:100F400069830E9426076981EBCF838DE80FF11D2D
:100F5000E35AFF4F6083D6015B960C935B975296E2
:100F6000ED91FC915397808180620CC0D60156961A
:100F7000ED91FC91579760835096ED91FC915197BC
:100F800080818064808381E090E00F90DF91CF9139
:100F90001F910F91FF90DF90CF900895BF92CF9255
:100FA000DF92EF92FF92CF93DF93EC016A017B0116
:100FB000B22EE889F98982E08083411581EE5807D5
:100FC00061057105A1F060E079E08DE390E0A70193
:100FD00096010E941A0A215031094109510956957A
:100FE000479537952795211580E1380798F0E889CE
:100FF000F989108260E874E88EE190E0A70196011B
:101000000E941A0A21503109410951095695479504
:1010100037952795EC85FD853083EE85FF85208308
:10102000188EEC89FD89B082EA89FB898081806114
:101030008083EA89FB89808188608083EA89FB89D3
:10104000808180688083EA89FB8980818F7D8083AD
:10105000DF91CF91FF90EF90DF90CF90BF900895F8
:101060001F920F920FB60F9211242F938F939F937D
:10107000EF93FF93E0913F04F09140048081E09171
:101080004504F091460482FD12C09081809148048D
:101090008F5F8F7320914904821751F0E0914804CB
:1010A000F0E0E15DFB4F958F8093480401C08081A3
:1010B000FF91EF919F918F912F910F900FBE0F9005
:1010C0001F9018951F920F920FB60F9211242F9315
:1010D0003F934F935F936F937F938F939F93AF93C0
:1010E000BF93EF93FF938FE294E00E942607FF9156
:1010F000EF91BF91AF919F918F917F916F915F9190
:101100004F913F912F910F900FBE0F901F90189508
:101110008FE294E00E94EB0621E0892B09F420E0A5
:10112000822F0895109232041092310488EE93E0D9
:10113000A0E0B0E08093330490933404A09335048E
:10114000B09336048AE191E09093300480932F04A9
:1011500085EC90E090933C0480933B0484EC90E019
:1011600090933E0480933D0480EC90E09093400483
:1011700080933F0481EC90E090934204809341047B
:1011800082EC90E0909344048093430486EC90E0DA
:1011900090934604809345041092480410924904A9
:1011A00010924A0410924B04089508950E94B006CC
:1011B0000E94D5080E948700C8E1D7E00E94FD0088
:1011C0002097E1F30E941807F9CFCF92DF92EF92B8
:1011D000FF920F931F93CF93DF936C017A01EB0182
:1011E000E60EF71E00E010E0CE15DF0561F0699114
:1011F000D601ED91FC910190F081E02DC601099599
:10120000080F191FF1CFC801DF91CF911F910F91E6
:10121000FF90EF90DF90CF9008956115710581F0F8
:10122000DB010D900020E9F7AD0141505109461B4B
:10123000570BDC01ED91FC910280F381E02D0994C4
:1012400080E090E008950C940D090F931F93CF93C5
:10125000DF93EC010E945906688779878A879B870C
:10126000E881F9810084F185E02DCE01099597FF91
:1012700015C00E945906088519852A853B85601B83
:10128000710B820B930B0C811D812E813F816017A6
:1012900071078207930720F38FEF9FEFDF91CF91C4
:1012A0001F910F910895CF93DF93EC01CE010E941F
:1012B000250997FD11C08D32910571F09C012053D5
:1012C00031092A30310540F0E881F9810680F78143
:1012D000E02DCE010995EACFDF91CF910895CF920D
:1012E000DF92FF920F931F93CF93DF9300D000D034
:1012F000CDB7DEB76C01062F0E945309FC0197FDA4
:101300004BC020E030E0A901F12C112707FD10951A
:10131000E017F107E9F0ED32F105C1F0CF01C09718
:101320000A97B0F4AAE0B0E00E945B0A9B01AC010E
:10133000CF01AA2797FDA095BA2F280F391F4A1F62
:101340005B1F205331094109510902C0FF24F39466
:10135000D601ED91FC910680F781E02DC60129832D
:101360003A834B835C830995C6010E942509FC01E1
:10137000C09729813A814B815C810A9748F2E01736
:10138000F10731F2FF2061F066277727CB01621B5E
:10139000730B840B950B06C060E070E0CB0102C0BC
:1013A000CA01B9010F900F900F900F90DF91CF916C
:1013B0001F910F91FF90DF90CF90089561E00C9402
:1013C0006F090895DB018F939F930E945B0ABF9181
:1013D000AF91A29F800D911DA39F900DB29F900D84
:1013E00011240895AA1BBB1B51E107C0AA1FBB1FF4
:1013F000A617B70710F0A61BB70B881F991F5A95A1
:10140000A9F780959095BC01CD01089597FB072E13
:1014100016F4009407D077FD09D00E94F20907FC6A
:1014200005D03EF4909581959F4F089570956195F4
:101430007F4F0895A1E21A2EAA1BBB1BFD010DC010
:10144000AA1FBB1FEE1FFF1FA217B307E407F50774
:1014500020F0A21BB30BE40BF50B661F771F881F50
:10146000991F1A9469F760957095809590959B01E6
:10147000AC01BD01CF010895052E97FB1EF4009429
:101480000E94530A57FD07D00E941A0A07FC03D096
:101490004EF40C94530A50954095309521953F4F4A
:1014A0004F4F5F4F089590958095709561957F4F50
:1014B0008F4F9F4F08950E946C0AA59F900DB49F77
:1014C000900DA49F800D911D11240895EE0FFF1F14
:1014D0000590F491E02D0994A29FB001B39FC00143
:1014E000A39F700D811D1124911DB29F700D811D50
:0A14F0001124911D0895F894FFCF18
:1014FA000000CC0480007800000000002A02CD021F
:10150A00850163006000000000006907E508EB063A
:06151A000407F606470776
:00000001FF
