:100000000C9436000C945E000C945E000C945E0020
:100010000C945E000C945E000C945E000C945E00E8
:100020000C945E000C945E000C945E000C945E00D8
:100030000C945E000C945E000C945E000C945E00C8
:100040000C9403060C945E000C9424080C9456083F
:100050000C945E000C945E000C945E000C945E00A8
:100060000C945E000C945E001705860811241FBED8
:10007000CFEFD8E0DEBFCDBF11E0A0E0B1E0E2EB12
:10008000F4E102C005900D92A432B107D9F724E043
:10009000A4E2B1E001C01D92AA3CB207E1F710E072
:1000A000CCE6D0E004C02297FE010E94440AC83684
:1000B000D107C9F70E94CA080C94570A0C94000093
:1000C00080E090E00895CF93DF9300D000D000D07F
:1000D000CDB7DEB7AB01DC01ED91FC910190F08171
:1000E000E02D19821A821B821C821D821E829E01B3
:1000F0002F5F3F4FBE016C5F7F4F099526960FB66D
:10010000F894DEBF0FBECDBFDF91CF91089526E0FA
:1001100040E452E46FE070E08DE294E00E94C20798
:1001200080913701811145C0109229011092280158
:100130008FEF80932C0180932D0180932E0180936B
:100140002F01809330018093310181E0809332014F
:10015000109234011092330110922B0110922A0157
:1001600080911B0490911C04892B31F486E291E06C
:1001700090931C0480931B04E0911904F0911A04DD
:10018000309721F086E291E09583848386E291E0C6
:1001900090931A04809319048AE091E090932701C8
:1001A00080932601109236011092350181E08093F0
:1001B000370120E030E040EF50E06FE371E086E28D
:1001C00091E00E94DC0484E580931D040895EFE330
:1001D000F1E03AEF2081239F212D20832181239F6D
:1001E000212D21832281239F212D228311243396C7
:1001F00084E0EF30F80771F70895FF920F931F9393
:10020000CF93DF9300D01F92CDB7DEB70E94E005F9
:100210000FE311E0FF24FA948091250191E0980FFB
:10022000909325018983FA82FB82B801CE01019661
:100230000E942A0560911D048DE194E00E9414043F
:100240000E94E70065E070E080E090E00E947C069C
:100250000D5F1F4F84E00F301807F1F600E010E04B
:10026000FF24FA948091250191E0980F9093250145
:100270008983FA82FB82B801645F7B4FCE010196CD
:100280000E942A0560911D048DE194E00E941404EF
:100290000E94E70065E070E080E090E00E947C064C
:1002A0000350110900338DEF1807E1F60F900F90FE
:1002B0000F90DF91CF911F910F91FF900895DC0176
:1002C0008D919C91009739F0DC01ED91FC910190AA
:1002D000F081E02D09940895DC018D919C910097A7
:1002E00039F0DC01ED91FC910280F381E02D09945D
:1002F0000895209A249A0F960C946C0187FF02C0EF
:10030000289A01C028982C9A2C9886FF02C0289A17
:1003100001C028982C9A2C9885FF02C0289A01C009
:1003200028982C9A2C9884FF02C0289A01C02898FB
:100330002C9A2C9883FF02C0289A01C028982C9AE6
:100340002C9882FF02C0289A01C028982C9A2C98D9
:1003500081FF02C0289A01C028982C9A2C9880FF0F
:1003600002C0289A01C028982C9A2C98089580E001
:100370000E947E0180E00E947E0180E00E947E015A
:1003800080E00C947E01CF93DF9397FD4F96EC01B4
:1003900085E0D595C7958A95E1F78FEF0E947E019C
:1003A00080E00E947E0180E00E947E0180E00E9449
:1003B0007E01219790F7DF91CF910895FF920F93DF
:1003C0001F93CF93DF93EC01809124018F5F982FCF
:1003D00097709093240180FD02C080E001C080E806
:1003E00091FD8064947009F0806290E1F92EF80E1E
:1003F00020E030E000E011E0FE01E20FF31F628533
:10040000662331F070E0C8010E94E2096F5F01C00D
:1004100060E067834F2D469F412D1124448366235E
:1004200011F0615067832F5F3F4F2330310521F773
:10043000DF91CF911F910F91FF900895AF92BF92DE
:10044000CF92DF92EF92FF920F931F93CF93DF93A0
:10045000CDB7DEB72F970FB6F894DEBF0FBECDBF76
:100460006C018A01F901DC011C968C917A83698305
:100470005C834B8390819B8791819C8792819D8730
:10048000813029F4CE0101960E94DE0106C01A8651
:10049000198618861F821E821D821E86BFE0CB0E23
:1004A000D11CC6010E945F010E94B701E12CF12C12
:1004B000E016F1060CF04EC0E981FA812281222378
:1004C00029F03F81230F08F42FEF01C020E03D8584
:1004D000239F212D11248FEF2F870E947E012F85CE
:1004E000822F0E947E01E981FA812181222329F055
:1004F0003E81230F08F42FEF01C020E03C85239FAD
:10050000212D1124A22EB12CBA2CAA242081222321
:1005100029F03D81230F08F42FEF01C020E03B8537
:10052000239F212D1124A22A8B2D0E947E018A2D2A
:100530000E947E0188859D81891B8D8389859E818E
:10054000891B8E838A859F81891B8F838FEFE81A91
:10055000F80AAECFC8010E94C301C6010E946C0117
:100560002F960FB6F894DEBF0FBECDBFDF91CF91AF
:100570001F910F91FF90EF90DF90CF90BF90AF90C1
:100580000895AF92BF92CF92DF92EF92FF920F93B6
:100590001F93CF93DF93CDB7DEB72F970FB6F894A5
:1005A000DEBF0FBECDBF6C018A01F901DC011C96D4
:1005B0008C917A8369835C834B8390819B87918143
:1005C0009C8792819D87813029F4CE0101960E94FB
:1005D000DE0106C01A86198618861F821E821D82B9
:1005E00083E08E87BFE0CB0ED11CC6010E945F0165
:1005F0000E94B701E12CF12CE016F1060CF05BC073
:10060000E981FA812281222329F03F81230F08F416
:100610002FEF01C020E03D85239F212D11248FEF76
:100620002F870E947E012F85822F0E947E01E98103
:10063000FA812181222329F03E81230F08F42FEF34
:1006400001C020E03C85239F212D1124A22EB12C36
:10065000BA2CAA242081222329F03D81230F08F4FB
:100660002FEF01C020E03B85239F212D1124A22ADA
:100670008B2D0E947E018A2D0E947E018E8529810C
:100680003A81280F311D3A8329832B813C812150E7
:1006900031093C832B8388859D81891B8D838985C6
:1006A0009E81891B8E838A859F81891B8F838FEF13
:1006B000E81AF80AA1CFC8010E94C301C6010E942E
:1006C0006C012F960FB6F894DEBF0FBECDBFDF9141
:1006D000CF911F910F91FF90EF90DF90CF90BF903F
:1006E000AF9008958F929F92AF92BF92EF92FF9238
:1006F0000F931F93CF93DF93EC01188219821A8214
:100700004423B9F1E0E0F0E08B010A5F1F4F7B0169
:1007100089E0E80EF11C842E912CA12CB12CD8017B
:10072000AE0FBF1F2C91D701AE0FBF1F6C912223BC
:10073000E1F06623D1F030E040E050E02F5F3F4F22
:100740004F4F5F4F70E080E090E06F5F7F4F8F4FC3
:100750009F4F0E94BE099B01AC01C501B4010E94DC
:10076000BE09DE01AE0FBF1F8C933196E330F10559
:10077000B1F6CE01DF91CF911F910F91FF90EF90D5
:10078000BF90AF909F908F900895CF92DF92EF929D
:10079000FF92CF93DF93EC018091130490911404A6
:1007A0009C012F5F3F4F309314042093130486174E
:1007B00097079CF10E944D069B01AC01E091130448
:1007C000F091140488EE93E0E89FB001E99F700D6A
:1007D000F89F700D1124882777FD8095982FC09081
:1007E0000F04D0901004E0901104F09012042C1922
:1007F0003D094E095F090E94F6093A832983109248
:100800001404109213040E944D0660930F04709319
:1008100010048093110490931204DF91CF91FF9004
:10082000EF90DF90CF900895AF92BF92CF92DF927A
:10083000EF92FF920F931F93CF93DF9300D01F92FD
:10084000CDB7DEB78C01B62EF80183819481A581E6
:10085000B681892B8A2B8B2BD1F00E945906C09030
:100860001504D0901604E0901704F09018046C1949
:100870007D098E099F09D8011396CD90DD90ED90EA
:10088000FC9016976C157D058E059F05E8F20E9479
:10089000590660931504709316048093170490937F
:1008A0001804E0901B04F0901C04E114F10451F1D1
:1008B000F701A484D80111968D919C9112978436EA
:1008C000910508F41486D701ED91FC91C280D38084
:1008D0004B2DB701CE0101960E947203F7014585A9
:1008E0005685628173819E012F5F3F4FC701F601DC
:1008F0000995D7011C96AC921C971496ED90FC902C
:100900001597D3CF69E170E0C8010E94C5030F902D
:100910000F900F90DF91CF911F910F91FF90EF906B
:10092000DF90CF90BF90AF900895CF92DF92EF927B
:10093000FF920F931F93CF93DF93EC014423F1F0C9
:100940006115710581F19B0140E050E060E472E4C3
:100950008FE090E00E94180ACB80DC80ED80FE8062
:1009600089019A010C151D052E053F0510F497010C
:1009700086010B831C832D833E8315C06115710591
:1009800071F09B0140E050E060E472E48FE090E0A1
:100990000E94180A2B833C834D835E8304C01B8214
:1009A0001C821D821E82DF91CF911F910F91FF90BB
:1009B000EF90DF90CF900895CF92DF92EF92FF9269
:1009C0000F931F93CF93DF93EC016B018A017901A1
:1009D000121613061CF07A0100E010E0E881F9819C
:1009E0000480F581E02DCE010995C801880F991F7B
:1009F000800F911F8C0D9D1D9B838A83FE86ED8643
:100A0000E881F9810084F185E02DCE01099541E06E
:100A1000BC018DE194E00E949504CE01DF91CF915D
:100A20001F910F91FF90EF90DF90CF9008958FEF7F
:100A300080931D0410921F0410921E040895FC015F
:100A40002081222321F0269F212D09F02F5FFC0118
:100A500020830895FF920F931F93CF93DF9300D0CD
:100A600000D0CDB7DEB7FC018B014081F18052810F
:100A7000842F8F71880F880F880F282F35E5239FCB
:100A8000212D1124342F3074942F907247FD25C0EE
:100A900031110EC0911106C0822F80958B832A835D
:100AA00019823FC08BEA8B832B5A2A83198239C063
:100AB00091110DC0382F4AEA349F312D11249BEA41
:100AC000931B9B8325552A83198280E02AC01B82B1
:100AD00080E0822F80958A8312C0311112C091115B
:100AE0000BC01B82282F3AEA239F212D11248BEA69
:100AF000821B8A832B5A03C02B831A822095298359
:100B000010C0911106C085E5820F8B831A828BEA93
:100B100006C08BEA820F8B831A8280E085E5821BF8
:100B200089832FEFF21601F16F2DCE0103965C83BE
:100B30000E941F056F2DCE0102960E941F056F2D8A
:100B4000CE0101960E941F0511246F2D6095669FAE
:100B5000612D11248B81860F8B838A81860F8A8376
:100B60008981860F89835C815F3FC9F0F12C2F2D2D
:100B7000552321F0559F212D09F02F5FF22E622F72
:100B8000CE0103960E941F056F2DCE0102960E9492
:100B90001F056F2DCE0101960E941F0511248B8128
:100BA000F80180838A818183898182830F900F90ED
:100BB0000F900F90DF91CF911F910F91FF900895AB
:100BC000CF92DF92EF92FF928DE294E00E94DF06D7
:100BD000181619069CF48DE294E00E94BA096B0184
:100BE0007C0183E5C816D10448F48DE294E00E94AC
:100BF000F8060A9749F7C0921D04E6CFFF90EF90E0
:100C0000DF90CF9008951F920F920FB60F9211248C
:100C10002F933F938F939F93AF93BF93809125041E
:100C200090912604A0912704B091280430912404C7
:100C300023E0230F2D3720F40196A11DB11D05C01F
:100C400026E8230F0296A11DB11D20932404809352
:100C5000250490932604A0932704B0932804809140
:100C6000290490912A04A0912B04B0912C040196A0
:100C7000A11DB11D8093290490932A04A0932B04F5
:100C8000B0932C04BF91AF919F918F913F912F9181
:100C90000F900FBE0F901F9018952FB7F89460918A
:100CA00025047091260480912704909128042FBF79
:100CB00008953FB7F8948091290490912A04A09157
:100CC0002B04B0912C0426B5A89B05C02F3F19F02A
:100CD0000196A11DB11D3FBF6627782F892F9A2F3E
:100CE000620F711D811D911D42E0660F771F881FE5
:100CF000991F4A95D1F70895CF92DF92EF92FF9214
:100D0000CF93DF936B017C010E945906EB01C11464
:100D1000D104E104F10489F00E94BD090E94590642
:100D20006C1B7D0B683E734090F381E0C81AD108BC
:100D3000E108F108C851DC4FEACFDF91CF91FF9075
:100D4000EF90DF90CF900895789484B5826084BD51
:100D500084B5816084BD85B5826085BD85B58160BF
:100D600085BDEEE6F0E0808181608083E1E8F0E01F
:100D70001082808182608083808181608083E0E84E
:100D8000F0E0808181608083E1EBF0E0808184602D
:100D90008083E0EBF0E0808181608083EAE7F0E02F
:100DA0008081846080838081826080838081816093
:100DB00080838081806880831092C1000895FC0147
:100DC000818D228D90E0805C9F4F821B91098F73F3
:100DD00099270895FC01918D828D981731F0828DAD
:100DE000E80FF11D858D90E008958FEF9FEF089536
:100DF000FC01918D828D981761F0828DDF01A80F23
:100E0000B11D5D968C91928D9F5F9F73928F90E044
:100E100008958FEF9FEF08958CE798E0892B49F0B4
:100E200080E090E0892B29F00E947C0881110C94CD
:100E300000000895FC01848DDF01A80FB11DA35AA5
:100E4000BF4F2C91848D90E001968F739927848FEA
:100E5000A689B7892C93A089B1898C9180648C93E1
:100E6000938D848D981306C00288F389E02D8081CC
:100E70008F7D80830895CF93DF93EC01888D882345
:100E8000C9F0EA89FB89808185FD05C0A889B989F7
:100E90008C9186FD0FC00FB607FCF5CF808185FFD2
:100EA000F2CFA889B9898C9185FFEDCFCE010E9440
:100EB0001A07E7CFDF91CF910895CF92DF92FF928B
:100EC0000F931F93CF93DF931F92CDB7DEB76C01C3
:100ED00081E0D60158968C9358975B969C915B97CE
:100EE0005C968C915C97981307C05096ED91FC919D
:100EF0005197808185FD2EC0F601038D10E00F5FB4
:100F00001F4F0F731127F02EF601848DF81211C0B8
:100F10000FB607FCF9CFD6015096ED91FC91519791
:100F2000808185FFF1CFC60169830E941A0769811C
:100F3000EBCF838DE80FF11DE35AFF4F6083D6019D
:100F40005B960C935B975296ED91FC915397808141
:100F500080620CC0D6015696ED91FC915797608344
:100F60005096ED91FC91519780818064808381E05F
:100F700090E00F90DF91CF911F910F91FF90DF9044
:100F8000CF900895BF92CF92DF92EF92FF92CF93CE
:100F9000DF93EC016A017B01B22EE889F98982E0D6
:100FA0008083411581EE580761057105A1F060E06D
:100FB00079E08DE390E0A70196010E94F6092150A7
:100FC00031094109510956954795379527952115BE
:100FD00080E1380798F0E889F989108260E874E8C0
:100FE0008EE190E0A70196010E94F6092150310997
:100FF000410951095695479537952795EC85FD850B
:101000003083EE85FF852083188EEC89FD89B082C0
:10101000EA89FB89808180618083EA89FB898081FC
:1010200088608083EA89FB89808180688083EA897F
:10103000FB8980818F7D8083DF91CF91FF90EF903E
:10104000DF90CF90BF9008951F920F920FB60F922E
:1010500011242F938F939F93EF93FF93E0913D047F
:10106000F0913E048081E0914304F091440482FDBC
:1010700012C09081809146048F5F8F732091470446
:10108000821751F0E0914604F0E0E35DFB4F958F4D
:101090008093460401C08081FF91EF919F918F91D1
:1010A0002F910F900FBE0F901F9018951F920F92C7
:1010B0000FB60F9211242F933F934F935F936F932B
:1010C0007F938F939F93AF93BF93EF93FF938DE2A3
:1010D00094E00E941A07FF91EF91BF91AF919F9109
:1010E0008F917F916F915F914F913F912F910F90D1
:1010F0000FBE0F901F9018958DE294E00E94DF06BE
:1011000021E0892B09F420E0822F08951092300409
:1011100010922F0488EE93E0A0E0B0E080933104B9
:1011200090933204A0933304B093340488E191E0A7
:1011300090932E0480932D0485EC90E090933A04D4
:101140008093390484EC90E090933C0480933B04BA
:1011500080EC90E090933E0480933D0481EC90E01D
:101160009093400480933F0482EC90E0909342047B
:101170008093410486EC90E0909344048093430470
:1011800010924604109247041092480410924904A9
:10119000089508950E94A4060E94C9080E9487002D
:1011A000CCE0D7E00E94FD002097E1F30E940C07FD
:1011B000F9CFCF92DF92EF92FF920F931F93CF93CD
:1011C000DF936C017A01EB01E60EF71E00E010E000
:1011D000CE15DF0561F06991D601ED91FC9101908A
:1011E000F081E02DC6010995080F191FF1CFC80144
:1011F000DF91CF911F910F91FF90EF90DF90CF90F3
:1012000008950F931F93CF93DF93EC010E944D0637
:10121000688779878A879B87E881F9810084F185CF
:10122000E02DCE01099597FF15C00E944D06088557
:1012300019852A853B85601B710B820B930B0C81F2
:101240001D812E813F81601771078207930720F36C
:101250008FEF9FEFDF91CF911F910F910895CF9363
:10126000DF93EC01CE010E94010997FD11C08D3280
:10127000910571F09C01205331092A30310540F06D
:10128000E881F9810680F781E02DCE010995EACF4A
:10129000DF91CF910895CF92DF92FF920F931F932A
:1012A000CF93DF9300D000D0CDB7DEB76C01062F0F
:1012B0000E942F09FC0197FD4BC020E030E0A901FE
:1012C000F12C112707FD1095E017F107E9F0ED3239
:1012D000F105C1F0CF01C0970A97B0F4AAE0B0E0E1
:1012E0000E94370A9B01AC01CF01AA2797FDA09568
:1012F000BA2F280F391F4A1F5B1F2053310941099C
:10130000510902C0FF24F394D601ED91FC910680AF
:10131000F781E02DC60129833A834B835C830995CD
:10132000C6010E940109FC01C09729813A814B81C5
:101330005C810A9748F2E017F10731F2FF2061F073
:1013400066277727CB01621B730B840B950B06C0B6
:1013500060E070E0CB0102C0CA01B9010F900F90AC
:101360000F900F90DF91CF911F910F91FF90DF9021
:10137000CF90089561E00C944B090895DB018F93A1
:101380009F930E94370ABF91AF91A29F800D911D3C
:10139000A39F900DB29F900D11240895AA1BBB1B13
:1013A00051E107C0AA1FBB1FA617B70710F0A61B65
:1013B000B70B881F991F5A95A9F780959095BC0186
:1013C000CD01089597FB072E16F4009407D077FD02
:1013D00009D00E94CE0907FC05D03EF49095819576
:1013E0009F4F0895709561957F4F0895A1E21A2E41
:1013F000AA1BBB1BFD010DC0AA1FBB1FEE1FFF1FB9
:10140000A217B307E407F50720F0A21BB30BE40B08
:10141000F50B661F771F881F991F1A9469F760954F
:101420007095809590959B01AC01BD01CF01089509
:10143000052E97FB1EF400940E942F0A57FD07D03B
:101440000E94F60907FC03D04EF40C942F0A509525
:101450004095309521953F4F4F4F5F4F08959095A0
:101460008095709561957F4F8F4F9F4F08950E9493
:10147000480AA59F900DB49F900DA49F800D911DCB
:1014800011240895EE0FFF1F0590F491E02D0994AB
:10149000A29FB001B39FC001A39F700D811D1124B5
:1014A000911DB29F700D811D1124911D0895F89416
:0214B000FFCF6C
:1014B2000000CA048000000000001E02C10279017F
:1014C20063006000000000005D07D908DF06F8062F
:0414D200EA063B07E4
:00000001FF
