:100000000C9436000C945E000C945E000C945E0020
:100010000C945E000C945E000C945E000C945E00E8
:100020000C945E000C945E000C945E000C945E00D8
:100030000C945E000C945E000C945E000C945E00C8
:100040000C94EC010C945E000C9401040C943304A9
:100050000C945E000C945E000C945E000C945E00A8
:100060000C945E000C945E00E501630411241FBE35
:10007000CFEFD8E0DEBFCDBF11E0A0E0B1E0EAE312
:10008000FAE002C005900D92A631B107D9F724E03D
:10009000A6E1B1E001C01D92A039B207E1F710E07E
:1000A000CCE6D0E004C02297FE010E941705C836B6
:1000B000D107C9F70E94A7040C941B050C940000FB
:1000C0002898209A2C98249A089526E040E452E437
:1000D0006FE070E083EF93E00C949F03BF92CF92A8
:1000E000DF92EF92FF920F931F93CF93DF93C62F70
:1000F0002CE330E0B9010E94DF047B01FC015FEFDB
:100100005E9FC0015F9F900D1124B9010E94DF0422
:100110008B01E42FF0E0D0E02FEF30E0B9016C1B51
:100120007D0B6E9FC0016F9F900D7E9F900D1124DF
:10013000B9010E94DF04C62ED62E0C9FC0010D9F70
:10014000900D1C9F900D1124B9010E94DF04C9017C
:10015000861B970BBC016E9FC0016F9F900D7E9F09
:10016000900D1124B9010E94DF04B62EB901601B65
:10017000710B6C9FC0016D9F900D7C9F900D1124A1
:10018000B9010E94DF04E901C61BD70BCE9FC00155
:10019000CF9F900DDE9F900D1124B9010E94DF04C6
:1001A000F62FE62FC70164E170E00E94DF04823081
:1001B000910599F02CF40097F1F0019759F006C0E1
:1001C0008430910591F06CF0059799F0D12CE0E026
:1001D00040E011C0E42F4B2D0EC0E42F4C2DDF2E3C
:1001E0000AC0EB2DD42E4C2D06C0D42E4F2FEC2D53
:1001F00002C0EC2DDB2C642F7E2F8D2DDF91CF9153
:100200001F910F91FF90EF90DF90CF90BF900895D6
:1002100067FF02C0289A01C028982C9A2C9866FF84
:1002200002C0289A01C028982C9A2C9865FF02C019
:10023000289A01C028982C9A2C9864FF02C0289A0A
:1002400001C028982C9A2C9863FF02C0289A01C0FC
:1002500028982C9A2C9862FF02C0289A01C02898EE
:100260002C9A2C9861FF02C0289A01C028982C9AD9
:100270002C9860FF02C0289A01C028982C9A2C98CC
:1002800008956F927F929F92AF92BF92CF92DF922A
:10029000EF92FF920F931F93CF93DF9300D0CDB7D0
:1002A000DEB73C01F62E6A012A8379830E94600042
:1002B00060E0C3010E94080160E0C3010E940801E0
:1002C00060E0C3010E94080160E0C3010E940801D0
:1002D0000F2D7981172FE12CF12C2A81206EEC143F
:1002E000FD04E1F0F801B080A1809280622FC3018B
:1002F0002A830E940801692DC3010E9408016A2D0A
:10030000C3010E9408016B2DC3010E940801FFEF89
:10031000EF1AFF0A0D5F1F4F2A81E1CF8EE0E80E32
:10032000F11C84E0F694E7948A95E1F700E010E090
:100330000E151F0539F060E0C3010E9408010F5F30
:100340001F4FF6CF0F900F90DF91CF911F910F911C
:10035000FF90EF90DF90CF90BF90AF909F907F90F5
:100360006F900C9460008091160190911701019696
:10037000883621E0920728F49093170180931601A4
:1003800004C010921701109216014FEF6FEF809189
:100390001601909117010E946E00E8E1F1E061936F
:1003A0007193819393E0E83EF907C9F721E040EFAC
:1003B00050E068E171E088EE93E00E94410164E65C
:1003C00070E080E090E00C94590284E091E090931A
:1003D000E9038093E80308951F920F920FB60F92DE
:1003E00011242F933F938F939F93AF93BF9380914B
:1003F000EB039091EC03A091ED03B091EE033091EB
:10040000EA0323E0230F2D3720F40196A11DB11D2F
:1004100005C026E8230F0296A11DB11D2093EA0313
:100420008093EB039093EC03A093ED03B093EE0362
:100430008091EF039091F003A091F103B091F2034A
:100440000196A11DB11D8093EF039093F003A0933B
:10045000F103B093F203BF91AF919F918F913F91C0
:100460002F910F900FBE0F901F9018953FB7F894E3
:100470008091EF039091F003A091F103B091F2030A
:1004800026B5A89B05C02F3F19F00196A11DB11DEF
:100490003FBF6627782F892F9A2F620F711D811D0C
:1004A000911D42E0660F771F881F991F4A95D1F76B
:1004B0000895CF92DF92EF92FF92CF93DF936B017B
:1004C0007C010E943602EB01C114D104E104F10465
:1004D00089F00E94DE040E9436026C1B7D0B683E90
:1004E000734090F381E0C81AD108E108F108C851BF
:1004F000DC4FEACFDF91CF91FF90EF90DF90CF906C
:100500000895789484B5826084BD84B5816084BD8B
:1005100085B5826085BD85B5816085BDEEE6F0E07C
:10052000808181608083E1E8F0E0108280818260D8
:100530008083808181608083E0E8F0E08081816059
:100540008083E1EBF0E0808184608083E0EBF0E089
:10055000808181608083EAE7F0E08081846080832D
:1005600080818260808380818160808380818068D7
:1005700080831092C1000895FC01818D228D90E04E
:10058000805C9F4F821B91098F7399270895FC010E
:10059000918D828D981731F0828DE80FF11D858D38
:1005A00090E008958FEF9FEF0895FC01918D828D6B
:1005B000981761F0828DDF01A80FB11D5D968C91B7
:1005C000928D9F5F9F73928F90E008958FEF9FEFC2
:1005D000089589E594E0892B49F080E090E0892B2B
:1005E00029F00E94590481110C9400000895FC0127
:1005F000848DDF01A80FB11DA35ABF4F2C91848DAC
:1006000090E001968F739927848FA689B7892C93E0
:10061000A089B1898C9180648C93938D848D98137B
:1006200006C00288F389E02D80818F7D8083089544
:10063000CF93DF93EC01888D8823C9F0EA89FB8989
:10064000808185FD05C0A889B9898C9186FD0FC080
:100650000FB607FCF5CF808185FFF2CFA889B98955
:100660008C9185FFEDCFCE010E94F702E7CFDF919D
:10067000CF910895CF92DF92FF920F931F93CF9364
:10068000DF931F92CDB7DEB76C0181E0D60158969B
:100690008C9358975B969C915B975C968C915C973A
:1006A000981307C05096ED91FC915197808185FD7C
:1006B0002EC0F601038D10E00F5F1F4F0F7311273F
:1006C000F02EF601848DF81211C00FB607FCF9CF99
:1006D000D6015096ED91FC915197808185FFF1CF25
:1006E000C60169830E94F7026981EBCF838DE80F11
:1006F000F11DE35AFF4F6083D6015B960C935B9725
:100700005296ED91FC915397808180620CC0D60186
:100710005696ED91FC91579760835096ED91FC9120
:10072000519780818064808381E090E00F90DF9119
:10073000CF911F910F91FF90DF90CF900895BF92BE
:10074000CF92DF92EF92FF92CF93DF93EC016A0199
:100750007B01B22EE889F98982E08083411581EE20
:10076000580761057105A1F060E079E08DE390E044
:10077000A70196010E94F304215031094109510952
:100780005695479537952795211580E1380798F0BC
:10079000E889F989108260E874E88EE190E0A701A9
:1007A00096010E94F30421503109410951095695DF
:1007B000479537952795EC85FD853083EE85FF8538
:1007C0002083188EEC89FD89B082EA89FB898081BB
:1007D00080618083EA89FB89808188608083EA89DF
:1007E000FB89808180688083EA89FB8980818F7D95
:1007F0008083DF91CF91FF90EF90DF90CF90BF90FB
:1008000008951F920F920FB60F9211242F938F937A
:100810009F93EF93FF93E0910304F0910404808190
:10082000E0910904F0910A0482FD12C09081809148
:100830000C048F5F8F7320910D04821751F0E091AB
:100840000C04F0E0ED50FC4F958F80930C0401C038
:100850008081FF91EF919F918F912F910F900FBE0B
:100860000F901F9018951F920F920FB60F921124A0
:100870002F933F934F935F936F937F938F939F93A8
:10088000AF93BF93EF93FF9383EF93E00E94F70240
:10089000FF91EF91BF91AF919F918F917F916F9158
:1008A0005F914F913F912F910F900FBE0F901F902E
:1008B000189583EF93E00E94BC0221E0892B09F494
:1008C00020E0822F08951092F6031092F50388EE2F
:1008D00093E0A0E0B0E08093F7039093F803A09337
:1008E000F903B093FA038AE091E09093F4038093C4
:1008F000F30385EC90E0909300048093FF0384EC75
:1009000090E0909302048093010480EC90E0909337
:1009100004048093030481EC90E090930604809398
:10092000050482EC90E0909308048093070486EC21
:1009300090E090930A048093090410920C041092A2
:100940000D0410920E0410920F04089508950E9451
:1009500081020E94A6040E946500C9EED2E00E94B6
:10096000B3012097E1F30E94E902F9CFCF92DF9221
:10097000EF92FF920F931F93CF93DF936C017A0155
:10098000EB01E60EF71E00E010E0CE15DF0561F08A
:100990006991D601ED91FC910190F081E02DC601A5
:1009A0000995080F191FF1CFC801DF91CF911F9151
:1009B0000F91FF90EF90DF90CF9008950895AA1BBC
:1009C000BB1B51E107C0AA1FBB1FA617B70710F03A
:1009D000A61BB70B881F991F5A95A9F7809590956C
:1009E000BC01CD010895A1E21A2EAA1BBB1BFD017B
:1009F0000DC0AA1FBB1FEE1FFF1FA217B307E407FE
:100A0000F50720F0A21BB30BE40BF50B661F771F55
:100A1000881F991F1A9469F7609570958095909535
:100A20009B01AC01BD01CF010895EE0FFF1F0590A2
:0A0A3000F491E02D0994F894FFCF33
:100A3A00000000004101000000003A03B604BC02B5
:060A4A00D502C7021803EB
:00000001FF
