:100000000C9436000C945E000C945E000C945E0020
:100010000C945E000C945E000C945E000C945E00E8
:100020000C945E000C945E000C945E000C945E00D8
:100030000C945E000C945E000C945E000C945E00C8
:100040000C9452040C945E000C9475030C94A7035A
:100050000C945E000C945E000C945E000C945E00A8
:100060000C945E000C945E002902D70311241FBE7D
:10007000CFEFD8E0DEBFCDBF11E0A0E0B1E0EAE213
:10008000FAE002C005900D92A831B107D9F724E03B
:10009000A8E1B1E001C01D92A239B207E1F710E07A
:1000A000CCE6D0E004C02297FE010E940F05C836BE
:1000B000D107C9F70E941B040C9413050C9400008F
:1000C0002898209A2C98249A089526E040E855E232
:1000D00060E070E08CEE93E00C941303BF92CF923B
:1000E000DF92EF92FF920F931F93CF93DF93C62F70
:1000F0002CE330E0B9010E94D7047B01FC015FEFE3
:100100005E9FC0015F9F900D1124B9010E94D7042A
:100110008B01E42FF0E0D0E02FEF30E0B9016C1B51
:100120007D0B6E9FC0016F9F900D7E9F900D1124DF
:10013000B9010E94D704C62ED62E0C9FC0010D9F78
:10014000900D1C9F900D1124B9010E94D704C90184
:10015000861B970BBC016E9FC0016F9F900D7E9F09
:10016000900D1124B9010E94D704B62EB901601B6D
:10017000710B6C9FC0016D9F900D7C9F900D1124A1
:10018000B9010E94D704E901C61BD70BCE9FC0015D
:10019000CF9F900DDE9F900D1124B9010E94D704CE
:1001A000F62FE62FC70164E170E00E94D704823089
:1001B000910599F02CF40097F1F0019759F006C0E1
:1001C0008430910591F06CF0059799F0D12CE0E026
:1001D00040E011C0E42F4B2D0EC0E42F4C2DDF2E3C
:1001E0000AC0EB2DD42E4C2D06C0D42E4F2FEC2D53
:1001F00002C0EC2DDB2C642F7E2F8D2DDF91CF9153
:100200001F910F91FF90EF90DF90CF90BF900895D6
:1002100067FF02C0289A01C028982C9A2C9866FF84
:1002200002C0289A01C028982C9A2C9865FF02C019
:10023000289A01C028982C9A2C9864FF02C0289A0A
:1002400001C028982C9A2C9863FF02C0289A01C0FC
:1002500028982C9A2C9862FF02C0289A01C02898EE
:100260002C9A2C9861FF02C0289A01C028982C9AD9
:100270002C9860FF02C0289A01C028982C9A2C98CC
:1002800008956F927F929F92AF92BF92CF92DF922A
:10029000EF92FF920F931F93CF93DF9300D0CDB7D0
:1002A000DEB73C01F62E6A012A8379830E94600042
:1002B00060E0C3010E94080160E0C3010E940801E0
:1002C00060E0C3010E94080160E0C3010E940801D0
:1002D0000F2D7981172FE12CF12C2A81206EEC143F
:1002E000FD04E1F0F801B080A1809280622FC3018B
:1002F0002A830E940801692DC3010E9408016A2D0A
:10030000C3010E9408016B2DC3010E940801FFEF89
:10031000EF1AFF0A0D5F1F4F2A81E1CF8EE0E80E32
:10032000F11C84E0F694E7948A95E1F700E010E090
:100330000E151F0539F060E0C3010E9408010F5F30
:100340001F4FF6CF0F900F90DF91CF911F910F911C
:10035000FF90EF90DF90CF90BF90AF909F907F90F5
:100360006F900C946000EF92FF920F931F93CF93C6
:10037000DF93209100018091180190911901820F63
:10038000911D813D22E0920728F4909319018093FA
:10039000180104C01092190110921801C0E0D0E0B9
:1003A00038E6E32EFF24F39440911801509119018F
:1003B0009E01241B350BCA018C1B9D0B97FF03C0AC
:1003C000919581959109B90137FF04C06627772778
:1003D000621B730B681779070CF4CB014836514048
:1003E00058F020533D4F37FF03C031952195310917
:1003F0002817390708F4C901F701E81BF90BCF01E9
:100400008836F1E09F0711F487E691E08E01000F36
:10041000111F0C0F1D1F065E1E4F4FEF6FEF0E9446
:100420006E00F8016083718382832196C03FD105FD
:1004300009F0BACF24E140EF50E06AE171E08AEEC2
:1004400093E0DF91CF911F910F91FF90EF900C946B
:10045000410185E091E09093EB038093EA030895D6
:10046000FC01818D228D90E0805C9F4F821B910961
:100470008F7399270895FC01918D828D981731F023
:10048000828DE80FF11D858D90E008958FEF9FEF2D
:100490000895FC01918D828D981761F0828DDF01A6
:1004A000A80FB11D5D968C91928D9F5F9F73928F67
:1004B00090E008958FEF9FEF08958DEC93E0892BE6
:1004C00049F080E090E0892B29F00E94CD03811152
:1004D0000C9400000895FC01848DDF01A80FB11D6C
:1004E000A35ABF4F2C91848D90E001968F7399276A
:1004F000848FA689B7892C93A089B1898C91806457
:100500008C93938D848D981306C00288F389E02D17
:1005100080818F7D80830895CF93DF93EC01888D58
:100520008823C9F0EA89FB89808185FD05C0A889F7
:10053000B9898C9186FD0FC00FB607FCF5CF80817D
:1005400085FFF2CFA889B9898C9185FFEDCFCE01C7
:100550000E946B02E7CFDF91CF910895CF92DF9297
:10056000FF920F931F93CF93DF931F92CDB7DEB708
:100570006C0181E0D60158968C9358975B969C91BC
:100580005B975C968C915C97981307C05096ED91A1
:10059000FC915197808185FD2EC0F601038D10E0FE
:1005A0000F5F1F4F0F731127F02EF601848DF81285
:1005B00011C00FB607FCF9CFD6015096ED91FC9112
:1005C0005197808185FFF1CFC60169830E946B023C
:1005D0006981EBCF838DE80FF11DE35AFF4F6083F4
:1005E000D6015B960C935B975296ED91FC915397D5
:1005F000808180620CC0D6015696ED91FC91579790
:1006000060835096ED91FC91519780818064808346
:1006100081E090E00F90DF91CF911F910F91FF90BB
:10062000DF90CF900895BF92CF92DF92EF92FF922A
:10063000CF93DF93EC016A017B01B22EE889F9893F
:1006400082E08083411581EE580761057105A1F0B4
:1006500060E079E08DE390E0A70196010E94EB0451
:1006600021503109410951095695479537952795EC
:10067000211580E1380798F0E889F989108260E84F
:1006800074E88EE190E0A70196010E94EB042150EE
:100690003109410951095695479537952795EC85BC
:1006A000FD853083EE85FF852083188EEC89FD89DA
:1006B000B082EA89FB89808180618083EA89FB8935
:1006C000808188608083EA89FB898081806880835B
:1006D000EA89FB8980818F7D8083DF91CF91FF90B4
:1006E000EF90DF90CF90BF9008951F920F920FB6BA
:1006F0000F9211242F938F939F93EF93FF93E09189
:10070000FC03F091FD038081E0910204F091030469
:1007100082FD12C09081809105048F5F8F732091BC
:100720000604821751F0E0910504F0E0E451FC4F1B
:10073000958F8093050401C08081FF91EF919F9177
:100740008F912F910F900FBE0F901F9018951F92B1
:100750000F920FB60F9211242F933F934F935F93F5
:100760006F937F938F939F93AF93BF93EF93FF9379
:100770008CEE93E00E946B02FF91EF91BF91AF91DD
:100780009F918F917F916F915F914F913F912F91A9
:100790000F900FBE0F901F9018958CEE93E00E9463
:1007A000300221E0892B09F420E0822F0895109275
:1007B000EF031092EE0388EE93E0A0E0B0E08093A8
:1007C000F0039093F103A093F203B093F3038BE053
:1007D00091E09093ED038093EC0385EC90E090938F
:1007E000F9038093F80384EC90E09093FB038093EB
:1007F000FA0380EC90E09093FD038093FC0381EC7E
:1008000090E09093FF038093FE0382EC90E090933E
:1008100001048093000486EC90E09093030480939D
:10082000020410920504109206041092070410921C
:100830000804089508950E949C040E941A040E94CE
:100840006500CDE5D2E00E94B3012097E1F30E945C
:100850005D02F9CFCF92DF92EF92FF920F931F9339
:10086000CF93DF936C017A01EB01E60EF71E00E0F7
:1008700010E0CE15DF0561F06991D601ED91FC9194
:100880000190F081E02DC6010995080F191FF1CFE5
:10089000C801DF91CF911F910F91FF90EF90DF90F2
:1008A000CF9008951F920F920FB60F9211242F939D
:1008B0003F938F939F93AF93BF9380918A049091BE
:1008C0008B04A0918C04B0918D043091890423E0B5
:1008D000230F2D3720F40196A11DB11D05C026E878
:1008E000230F0296A11DB11D2093890480938A04D1
:1008F00090938B04A0938C04B0938D0480918E040C
:1009000090918F04A0919004B09191040196A11D43
:10091000B11D80938E0490938F04A0939004B093A4
:100920009104BF91AF919F918F913F912F910F9023
:100930000FBE0F901F901895789484B5826084BD87
:1009400084B5816084BD85B5826085BD85B58160D3
:1009500085BDEEE6F0E0808181608083E1E8F0E033
:100960001082808182608083808181608083E0E862
:10097000F0E0808181608083E1EBF0E08081846041
:100980008083E0EBF0E0808181608083EAE7F0E043
:1009900080818460808380818260808380818160A7
:1009A00080838081806880831092C1000895AA1B93
:1009B000BB1B51E107C0AA1FBB1FA617B70710F04A
:1009C000A61BB70B881F991F5A95A9F7809590957C
:1009D000BC01CD010895A1E21A2EAA1BBB1BFD018B
:1009E0000DC0AA1FBB1FEE1FFF1FA217B307E4070E
:1009F000F50720F0A21BB30BE40BF50B661F771F66
:100A0000881F991F1A9469F7609570958095909545
:100A10009B01AC01BD01CF010895EE0FFF1F0590B2
:0A0A2000F491E02D0994F894FFCF43
:100A2A000100000000410100000000AE022A04306B
:080A3A000249023B028C02009C
:00000001FF
