:100000000C9436000C945E000C945E000C945E0020
:100010000C945E000C945E000C945E000C945E00E8
:100020000C945E000C945E000C945E000C945E00D8
:100030000C945E000C945E000C945E000C945E00C8
:100040000C944C050C945E000C94B3030C94E503E3
:100050000C945E000C945E000C945E000C945E00A8
:100060000C945E000C945E003F02150411241FBE28
:10007000CFEFD8E0DEBFCDBF11E0A0E0B1E0EAE60F
:10008000FCE002C005900D92A032B107D9F724E040
:10009000A0E2B1E001C01D92AA39B207E1F710E079
:1000A000CCE6D0E004C02297FE010E942006C836AC
:1000B000D107C9F70E9459040C9433060C94000030
:1000C0002898209A2C98249A089526E040E452E437
:1000D0006FE070E084EF93E00C945103BF92CF92F5
:1000E000DF92EF92FF920F931F93CF93DF93C62F70
:1000F0002CE330E0B9010E94DD057B01FC015FEFDC
:100100005E9FC0015F9F900D1124B9010E94DD0523
:100110008B01E42FF0E0D0E02FEF30E0B9016C1B51
:100120007D0B6E9FC0016F9F900D7E9F900D1124DF
:10013000B9010E94DD05C62ED62E0C9FC0010D9F71
:10014000900D1C9F900D1124B9010E94DD05C9017D
:10015000861B970BBC016E9FC0016F9F900D7E9F09
:10016000900D1124B9010E94DD05B62EB901601B66
:10017000710B6C9FC0016D9F900D7C9F900D1124A1
:10018000B9010E94DD05E901C61BD70BCE9FC00156
:10019000CF9F900DDE9F900D1124B9010E94DD05C7
:1001A000F62FE62FC70164E170E00E94DD05823082
:1001B000910599F02CF40097F1F0019759F006C0E1
:1001C0008430910591F06CF0059799F0D12CE0E026
:1001D00040E011C0E42F4B2D0EC0E42F4C2DDF2E3C
:1001E0000AC0EB2DD42E4C2D06C0D42E4F2FEC2D53
:1001F00002C0EC2DDB2C642F7E2F8D2DDF91CF9153
:100200001F910F91FF90EF90DF90CF90BF900895D6
:1002100067FF02C0289A01C028982C9A2C9866FF84
:1002200002C0289A01C028982C9A2C9865FF02C019
:10023000289A01C028982C9A2C9864FF02C0289A0A
:1002400001C028982C9A2C9863FF02C0289A01C0FC
:1002500028982C9A2C9862FF02C0289A01C02898EE
:100260002C9A2C9861FF02C0289A01C028982C9AD9
:100270002C9860FF02C0289A01C028982C9A2C98CC
:1002800008956F927F929F92AF92BF92CF92DF922A
:10029000EF92FF920F931F93CF93DF9300D0CDB7D0
:1002A000DEB73C01F62E6A012A8379830E94600042
:1002B00060E0C3010E94080160E0C3010E940801E0
:1002C00060E0C3010E94080160E0C3010E940801D0
:1002D0000F2D7981172FE12CF12C2A81206EEC143F
:1002E000FD04E1F0F801B080A1809280622FC3018B
:1002F0002A830E940801692DC3010E9408016A2D0A
:10030000C3010E9408016B2DC3010E940801FFEF89
:10031000EF1AFF0A0D5F1F4F2A81E1CF8EE0E80E32
:10032000F11C84E0F694E7948A95E1F700E010E090
:100330000E151F0539F060E0C3010E9408010F5F30
:100340001F4FF6CF0F900F90DF91CF911F910F911C
:10035000FF90EF90DF90CF90BF90AF909F907F90F5
:100360006F900C946000CF92DF92EF92FF920F9308
:100370001F93CF93DF931F92CDB7DEB78091070114
:10038000909108010E944602282F809307019093C4
:100390000801809106014091200150912101480FF0
:1003A000511D413D32E0530728F450932101409301
:1003B000200104C01092210110922001C12CD12CE7
:1003C00048E6E42EFF24F3948091200190912101CE
:1003D000B601681B790BAC014C195D0957FF03C0CE
:1003E000519541955109FB0177FF04C0EE27FF2786
:1003F000E61BF70BE417F5070CF4AF0188369140C4
:1004000058F060537D4F77FF03C071956195710976
:100410006417750708F4AB01C701841B950B883678
:10042000F1E09F0711F487E691E08601000F111FAC
:100430000C0D1D1D0E5D1E4F4FEF6FEF29830E94A7
:100440006E00F801608371838283FFEFCF1ADF0AA9
:10045000298130EFC316D10409F0B6CF40EF50E048
:1004600062E271E082EF93E00F90DF91CF911F91F4
:100470000F91FF90EF90DF90CF900C9441018DE0B1
:1004800091E09093F3038093F2030895CF92DF926B
:10049000EF92FF92CF93DF93EC0184EF93E00E9401
:1004A0006E021816190654F484EF93E00E94490571
:1004B0006B017C0185E1C816D10410F0CE0107C0A4
:1004C00084EF93E00E9487020A9739F7C601DF9113
:1004D000CF91FF90EF90DF90CF900895FC01818D38
:1004E000228D90E0805C9F4F821B91098F7399272A
:1004F0000895FC01918D828D981731F0828DE80F5F
:10050000F11D858D90E008958FEF9FEF0895FC0118
:10051000918D828D981761F0828DDF01A80FB11D3A
:100520005D968C91928D9F5F9F73928F90E008955E
:100530008FEF9FEF08958BE094E0892B49F080E0E6
:1005400090E0892B29F00E940B0481110C9400008B
:100550000895FC01848DDF01A80FB11DA35ABF4F80
:100560002C91848D90E001968F739927848FA689B2
:10057000B7892C93A089B1898C9180648C93938DD9
:10058000848D981306C00288F389E02D80818F7DC9
:1005900080830895CF93DF93EC01888D8823C9F081
:1005A000EA89FB89808185FD05C0A889B9898C917C
:1005B00086FD0FC00FB607FCF5CF808185FFF2CF17
:1005C000A889B9898C9185FFEDCFCE010E94A9023F
:1005D000E7CFDF91CF910895CF92DF92FF920F93F3
:1005E0001F93CF93DF931F92CDB7DEB76C0181E0ED
:1005F000D60158968C9358975B969C915B975C9626
:100600008C915C97981307C05096ED91FC9151978F
:10061000808185FD2EC0F601038D10E00F5F1F4F16
:100620000F731127F02EF601848DF81211C00FB64A
:1006300007FCF9CFD6015096ED91FC91519780813E
:1006400085FFF1CFC60169830E94A9026981EBCFC2
:10065000838DE80FF11DE35AFF4F6083D6015B964F
:100660000C935B975296ED91FC9153978081806239
:100670000CC0D6015696ED91FC9157976083509629
:10068000ED91FC91519780818064808381E090E0BE
:100690000F90DF91CF911F910F91FF90DF90CF903E
:1006A0000895BF92CF92DF92EF92FF92CF93DF93A4
:1006B000EC016A017B01B22EE889F98982E080832E
:1006C000411581EE580761057105A1F060E079E000
:1006D0008DE390E0A70196010E94F10521503109B8
:1006E000410951095695479537952795211580E180
:1006F000380798F0E889F989108260E874E88EE19B
:1007000090E0A70196010E94F105215031094109AD
:1007100051095695479537952795EC85FD8530838A
:10072000EE85FF852083188EEC89FD89B082EA89E9
:10073000FB89808180618083EA89FB898081886070
:100740008083EA89FB89808180688083EA89FB89CC
:1007500080818F7D8083DF91CF91FF90EF90DF903C
:10076000CF90BF9008951F920F920FB60F92112451
:100770002F938F939F93EF93FF93E0910404F09155
:1007800005048081E0910A04F0910B0482FD12C0FF
:10079000908180910D048F5F8F7320910E048217DA
:1007A00051F0E0910D04F0E0EC50FC4F958F8093F8
:1007B0000D0401C08081FF91EF919F918F912F9146
:1007C0000F900FBE0F901F9018951F920F920FB6AB
:1007D0000F9211242F933F934F935F936F937F93C7
:1007E0008F939F93AF93BF93EF93FF9384EF93E027
:1007F0000E94A902FF91EF91BF91AF919F918F91BC
:100800007F916F915F914F913F912F910F900FBE0C
:100810000F901F90189584EF93E00E946E0221E0E4
:10082000892B09F420E0822F08951092F70310928B
:10083000F60388EE93E0A0E0B0E08093F803909395
:10084000F903A093FA03B093FB0383E191E0909343
:10085000F5038093F40385EC90E09093010480937A
:10086000000484EC90E0909303048093020480ECF5
:1008700090E0909305048093040481EC90E09093C1
:1008800007048093060482EC90E09093090480931F
:10089000080486EC90E090930B0480930A04109275
:1008A0000D0410920E0410920F041092100408957B
:1008B00008950E94A2050E9458040E946500CBE999
:1008C000D2E00E94B3012097E1F30E949B02F9CF8E
:1008D000CF92DF92EF92FF920F931F93CF93DF930C
:1008E0006C017A01EB01E60EF71E00E010E0CE1578
:1008F000DF0561F06991D601ED91FC910190F081E5
:10090000E02DC6010995080F191FF1CFC801DF912D
:10091000CF911F910F91FF90EF90DF90CF900895AE
:100920000F931F93CF93DF93EC010E949605688786
:1009300079878A879B87E881F9810084F185E02D9A
:10094000CE01099597FF15C00E9496050885198567
:100950002A853B85601B710B820B930B0C811D81DB
:100960002E813F81601771078207930720F38FEF75
:100970009FEFDF91CF911F910F910895CF93DF9358
:10098000EC01CE010E94900497FD11C08D329105BB
:1009900071F09C01205331092A30310540F0E88183
:1009A000F9810680F781E02DCE010995EACFDF912C
:1009B000CF910895CF92DF92FF920F931F93CF9321
:1009C000DF9300D000D0CDB7DEB76C01062F0E94B8
:1009D000BE04FC0197FD4BC020E030E0A901F12CE2
:1009E000112707FD1095E017F107E9F0ED32F10549
:1009F000C1F0CF01C0970A97B0F4AAE0B0E00E941E
:100A000013069B01AC01CF01AA2797FDA095BA2F31
:100A1000280F391F4A1F5B1F205331094109510913
:100A200002C0FF24F394D601ED91FC910680F7817A
:100A3000E02DC60129833A834B835C830995C60167
:100A40000E949004FC01C09729813A814B815C810E
:100A50000A9748F2E017F10731F2FF2061F06627AC
:100A60007727CB01621B730B840B950B06C060E0EC
:100A700070E0CB0102C0CA01B9010F900F900F9036
:100A80000F90DF91CF911F910F91FF90DF90CF904A
:100A9000089561E00C94DA041F920F920FB60F9242
:100AA00011242F933F938F939F93AF93BF93809184
:100AB000920490919304A0919404B0919504309184
:100AC000910423E0230F2D3720F40196A11DB11DC1
:100AD00005C026E8230F0296A11DB11D20939104A5
:100AE0008093920490939304A0939404B0939504FC
:100AF0008091960490919704A0919804B0919904E4
:100B00000196A11DB11D8093960490939704A09324
:100B10009804B0939904BF91AF919F918F913F91A9
:100B20002F910F900FBE0F901F9018952FB7F8942C
:100B30006091920470919304809194049091950433
:100B40002FBF0895789484B5826084BD84B5816098
:100B500084BD85B5826085BD85B5816085BDEEE6C5
:100B6000F0E0808181608083E1E8F0E010828081A4
:100B700082608083808181608083E0E8F0E0808112
:100B800081608083E1EBF0E0808184608083E0EB32
:100B9000F0E0808181608083EAE7F0E0808184601A
:100BA0008083808182608083808181608083808176
:100BB000806880831092C1000895AA1BBB1B51E17D
:100BC00007C0AA1FBB1FA617B70710F0A61BB70BBD
:100BD000881F991F5A95A9F780959095BC01CD0162
:100BE0000895A1E21A2EAA1BBB1BFD010DC0AA1F6E
:100BF000BB1FEE1FFF1FA217B307E407F50720F086
:100C0000A21BB30BE40BF50B661F771F881F991F00
:100C10001A9469F760957095809590959B01AC0149
:100C2000BD01CF0108950E942406A59F900DB49F99
:100C3000900DA49F800D911D11240895EE0FFF1FAC
:100C40000590F491E02D0994A29FB001B39FC001DB
:100C5000A39F700D811D1124911DB29F700D811DE8
:0A0C60001124911D0895F894FFCFB0
:100C6A0000009A0480000114000000000041010005
:100C7A00000000EC0268046E0287027902CA0200D0
:00000001FF
