:100000000C9435000C945D000C945D000C945D0024
:100010000C945D000C945D000C945D000C945D00EC
:100020000C945D000C945D000C945D000C945D00DC
:100030000C945D000C945D000C945D000C945D00CC
:100040000C9415020C945D000C945D000C945D0002
:100050000C945D000C945D000C945D000C945D00AC
:100060000C945D000C945D000E0211241FBECFEFB6
:10007000D8E0DEBFCDBF11E0A0E0B1E0E4E2F6E001
:1000800002C005900D92A630B107D9F723E0A6E093
:10009000B1E001C01D92A13EB207E1F710E0CAE64F
:1000A000D0E004C02297FE010E940C03C836D1079D
:1000B000C9F70E94E6020C9410030C9400002898E3
:1000C000209A2C98249A0895BF92CF92DF92EF92B3
:1000D000FF920F931F93CF93DF93C62F2CE330E053
:1000E000B9010E94F6027B01FC015FEF5E9FC00137
:1000F0005F9F900D1124B9010E94F6028B01E42F3D
:10010000F0E0D0E02FEF30E0B9016C1B7D0B6E9F6B
:10011000C0016F9F900D7E9F900D1124B9010E9428
:10012000F602C62ED62E0C9FC0010D9F900D1C9F6F
:10013000900D1124B9010E94F602C901861B970B8C
:10014000BC016E9FC0016F9F900D7E9F900D11248A
:10015000B9010E94F602B62EB901601B710B6C9FAB
:10016000C0016D9F900D7C9F900D1124B9010E94DC
:10017000F602E901C61BD70BCE9FC001CF9F900DA1
:10018000DE9F900D1124B9010E94F602F62FE62F92
:10019000C70164E170E00E94F6028230910599F097
:1001A0002CF40097F1F0019759F006C084309105C6
:1001B00091F06CF0059799F0D12CE0E040E011C08F
:1001C000E42F4B2D0EC0E42F4C2DDF2E0AC0EB2D5B
:1001D000D42E4C2D06C0D42E4F2FEC2D02C0EC2D6A
:1001E000DB2C642F7E2F8D2DDF91CF911F910F91EE
:1001F000FF90EF90DF90CF90BF900895EF92FF9225
:100200000F931F93CF93DF93E12CF12CC0E0D0E04C
:100210008E01000F111F0C0F1D1F0A5F1E4F4FEFA5
:100220006FEFC7010E946400F801608371838283CD
:100230002196F3E0EF0EF11CC837D10549F78FEF97
:1002400080936E0284E080936F0210927002E1E767
:10025000F2E0CEE6D2E0A2919291829189939993B5
:10026000A99381E0E930F807B1F7DF91CF911F91B1
:100270000F91FF90EF90089567FF02C0289A01C088
:1002800028982C9A2C9866FF02C0289A01C02898BA
:100290002C9A2C9865FF02C0289A01C028982C9AA5
:1002A0002C9864FF02C0289A01C028982C9A2C9898
:1002B00063FF02C0289A01C028982C9A2C9862FFEC
:1002C00002C0289A01C028982C9A2C9861FF02C07D
:1002D000289A01C028982C9A2C9860FF02C0289A6E
:1002E00001C028982C9A2C9808956F927F929F9223
:1002F000AF92BF92CF92DF92EF92FF920F931F9334
:10030000CF93DF9300D0CDB7DEB73C01F62E6A0164
:100310002A8379830E945F0060E0C3010E943C0150
:1003200060E0C3010E943C0160E0C3010E943C0107
:1003300060E0C3010E943C010F2D7981172FE12C51
:10034000F12C2A81206EEC14FD04E1F0F801B0805C
:10035000A1809280622FC3012A830E943C01692DF3
:10036000C3010E943C016A2DC3010E943C016B2D18
:10037000C3010E943C01FFEFEF1AFF0A0D5F1F4F00
:100380002A81E1CF8EE0E80EF11C94E0F694E79428
:100390009A95E1F700E010E00E151F0539F060E0D6
:1003A000C3010E943C010F5F1F4FF6CF0F900F90CB
:1003B000DF91CF911F910F91FF90EF90DF90CF9041
:1003C000BF90AF909F907F906F900C945F00E6E09D
:1003D000F1E083819481A58181939193A19383E03E
:1003E000E33DF807B1F78091060190910701A091D4
:1003F00008018093D3039093D403A093D50324E101
:1004000040EF50E066E071E086ED93E00E947501F8
:1004100062E370E080E090E00C94820284E091E07E
:100420009093D7038093D60308951F920F920FB62F
:100430000F9211242F933F938F939F93AF93BF936A
:100440008091D9039091DA03A091DB03B091DC0392
:100450003091D80323E0230F2D3720F40196A11DFE
:10046000B11D05C026E8230F0296A11DB11D2093E2
:10047000D8038093D9039093DA03A093DB03B0935E
:10048000DC038091DD039091DE03A091DF03B09146
:10049000E0030196A11DB11D8093DD039093DE035F
:1004A000A093DF03B093E003BF91AF919F918F9131
:1004B0003F912F910F900FBE0F901F9018953FB74F
:1004C000F8948091DD039091DE03A091DF03B09159
:1004D000E00326B5A89B05C02F3F19F00196A11D8A
:1004E000B11D3FBF6627782F892F9A2F620F711D8C
:1004F000811D911D42E0660F771F881F991F4A9545
:10050000D1F70895CF92DF92EF92FF92CF93DF93CE
:100510006B017C010E945F02EB01C114D104E10474
:10052000F10489F00E94F5020E945F026C1B7D0BB2
:10053000683E734090F381E0C81AD108E108F108E1
:10054000C851DC4FEACFDF91CF91FF90EF90DF9061
:10055000CF900895789484B5826084BD84B581601D
:1005600084BD85B5826085BD85B5816085BDEEE6BB
:10057000F0E0808181608083E1E8F0E0108280819A
:1005800082608083808181608083E0E8F0E0808108
:1005900081608083E1EBF0E0808184608083E0EB28
:1005A000F0E0808181608083EAE7F0E08081846010
:1005B000808380818260808380818160808380816C
:1005C000806880831092C100089508950E94AA0255
:1005D0000E94E5020E94FE00C0E0D0E00E94E70118
:1005E0002097E1F30E940000F9CF0895AA1BBB1BDE
:1005F00051E107C0AA1FBB1FA617B70710F0A61B23
:10060000B70B881F991F5A95A9F780959095BC0143
:10061000CD010895EE0FFF1F0590F491E02D099490
:04062000F894FFCF7C
:060624000000000075015A
:00000001FF
