:100000000C9436000C945E000C945E000C945E0020
:100010000C945E000C945E000C945E000C945E00E8
:100020000C945E000C945E000C945E000C945E00D8
:100030000C945E000C945E000C945E000C945E00C8
:100040000C9457020C945E000C9478040C94AA044F
:100050000C945E000C945E000C945E000C945E00A8
:100060000C945E000C945E002802DA0411241FBE7A
:10007000CFEFD8E0DEBFCDBF11E0A0E0B1E0E4ED0E
:10008000FCE002C005900D92AE31B107D9F724E033
:10009000AEE1B1E001C01D92A639B207E1F710E070
:1000A000CCE6D0E004C02297FE010E945506C83677
:1000B000D107C9F70E941E050C9468060C94000035
:1000C0002898209A2C98249A0895BF92CF92DF9274
:1000D000EF92FF920F931F93CF93DF93C62F2CE3E2
:1000E00030E0B9010E9412067B01FC015FEF5E9FC8
:1000F000C0015F9F900D1124B9010E9412068B016F
:10010000E42FF0E0D0E02FEF30E0B9016C1B7D0B65
:100110006E9FC0016F9F900D7E9F900D1124B901BD
:100120000E941206C62ED62E0C9FC0010D9F900D68
:100130001C9F900D1124B9010E941206C901861B53
:10014000970BBC016E9FC0016F9F900D7E9F900D1D
:100150001124B9010E941206B62EB901601B710B61
:100160006C9FC0016D9F900D7C9F900D1124B90173
:100170000E941206E901C61BD70BCE9FC001CF9F7C
:10018000900DDE9F900D1124B9010E941206F62FEA
:10019000E62FC70164E170E00E94120682309105EB
:1001A00099F02CF40097F1F0019759F006C08430D3
:1001B000910591F06CF0059799F0D12CE0E040E0CA
:1001C00011C0E42F4B2D0EC0E42F4C2DDF2E0AC0A2
:1001D000EB2DD42E4C2D06C0D42E4F2FEC2D02C06B
:1001E000EC2DDB2C642F7E2F8D2DDF91CF911F9175
:1001F0000F91FF90EF90DF90CF90BF900895EF9216
:10020000FF920F931F93CF93DF9326E040E452E4D5
:100210006FE070E089EF93E00E941604E12CF12C6E
:10022000C0E0D0E08E01000F111F0C0F1D1F025EF9
:100230001E4F4FEF6FEFC7010E946500F80160830A
:10024000718382832196F3E0EF0EF11CC837D1054C
:1002500049F78FEF8093860284E0809387021092A3
:100260008802E9E8F2E0C6E8D2E0A2919291829198
:1002700089939993A99381E0E132F807B1F7DF916F
:10028000CF911F910F91FF90EF90089567FF02C0EB
:10029000289A01C028982C9A2C9866FF02C0289AA8
:1002A00001C028982C9A2C9865FF02C0289A01C09A
:1002B00028982C9A2C9864FF02C0289A01C028988C
:1002C0002C9A2C9863FF02C0289A01C028982C9A77
:1002D0002C9862FF02C0289A01C028982C9A2C986A
:1002E00061FF02C0289A01C028982C9A2C9860FFC0
:1002F00002C0289A01C028982C9A2C9808956F92D1
:100300007F929F92AF92BF92CF92DF92EF92FF9235
:100310000F931F93CF93DF9300D0CDB7DEB73C018F
:10032000F62E6A012A8379830E94600060E0C3018F
:100330000E94460160E0C3010E94460160E0C301E3
:100340000E94460160E0C3010E9446010F2D7981A1
:10035000172FE12CF12C2A81206EEC14FD04E1F022
:10036000F801B080A1809280622FC3012A830E948D
:100370004601692DC3010E9446016A2DC3010E94F6
:1003800046016B2DC3010E944601FFEFEF1AFF0AE1
:100390000D5F1F4F2A81E1CF8EE0E80EF11C94E043
:1003A000F694E7949A95E1F700E010E00E151F052A
:1003B00039F060E0C3010E9446010F5F1F4FF6CF86
:1003C0000F900F90DF91CF911F910F91FF90EF90C1
:1003D000DF90CF90BF90AF909F907F906F900C94E4
:1003E0006000CF92DF92EF92809106019091070119
:1003F0000E942F028093060190930701EEE1F1E045
:10040000C380D480E580C192D192E19293E0EB3E2B
:10041000F907B1F7C0901E01D0901F01E0902001B4
:10042000C092EB03D092EC03E092ED03282F40EF53
:1004300050E06EE171E08EEE93E00E947F0162E396
:1004400070E080E090E0EF90DF90CF900C94D002CD
:100450008CE091E09093EF038093EE030895CF92A8
:10046000DF92EF92FF92CF93DF93EC0189EF93E05D
:100470000E9433031816190654F489EF93E00E9482
:100480000E066B017C0185E1C816D10410F0CE0187
:1004900007C089EF93E00E944C030A9739F7C60121
:1004A000DF91CF91FF90EF90DF90CF9008951F9252
:1004B0000F920FB60F9211242F933F938F939F9318
:1004C000AF93BF938091F1039091F203A091F30356
:1004D000B091F4033091F00323E0230F2D3720F483
:1004E0000196A11DB11D05C026E8230F0296A11D8E
:1004F000B11D2093F0038093F1039093F203A09336
:10050000F303B093F4038091F5039091F603A09167
:10051000F703B091F8030196A11DB11D8093F50377
:100520009093F603A093F703B093F803BF91AF91B4
:100530009F918F913F912F910F900FBE0F901F9021
:1005400018952FB7F8946091F1037091F2038091A0
:10055000F3039091F4032FBF08953FB7F89480916F
:10056000F5039091F603A091F703B091F80326B537
:10057000A89B05C02F3F19F00196A11DB11D3FBFDB
:100580006627782F892F9A2F620F711D811D911D6B
:1005900042E0660F771F881F991F4A95D1F708958B
:1005A000CF92DF92EF92FF92CF93DF936B017C01AA
:1005B0000E94AD02EB01C114D104E104F10489F001
:1005C0000E9411060E94AD026C1B7D0B683E7340B9
:1005D00090F381E0C81AD108E108F108C851DC4F56
:1005E000EACFDF91CF91FF90EF90DF90CF90089509
:1005F000789484B5826084BD84B5816084BD85B5FE
:10060000826085BD85B5816085BDEEE6F0E08081C4
:1006100081608083E1E8F0E01082808182608083E5
:10062000808181608083E0E8F0E080818160808368
:10063000E1EBF0E0808184608083E0EBF0E080819A
:1006400081608083EAE7F0E080818460808380813C
:1006500082608083808181608083808180688083E4
:100660001092C1000895FC01818D228D90E0805C84
:100670009F4F821B91098F7399270895FC01918DDB
:10068000828D981731F0828DE80FF11D858D90E0F5
:1006900008958FEF9FEF0895FC01918D828D98173B
:1006A00061F0828DDF01A80FB11D5D968C91928D56
:1006B0009F5F9F73928F90E008958FEF9FEF089553
:1006C00080ED94E0892B49F080E090E0892B29F0BF
:1006D0000E94D00481110C9400000895FC01848DC7
:1006E000DF01A80FB11DA35ABF4F2C91848D90E05C
:1006F00001968F739927848FA689B7892C93A08937
:10070000B1898C9180648C93938D848D981306C0ED
:100710000288F389E02D80818F7D80830895CF93B7
:10072000DF93EC01888D8823C9F0EA89FB898081F9
:1007300085FD05C0A889B9898C9186FD0FC00FB6CB
:1007400007FCF5CF808185FFF2CFA889B9898C910C
:1007500085FFEDCFCE010E946E03E7CFDF91CF91F1
:100760000895CF92DF92FF920F931F93CF93DF9361
:100770001F92CDB7DEB76C0181E0D60158968C93FD
:1007800058975B969C915B975C968C915C979813BD
:1007900007C05096ED91FC915197808185FD2EC048
:1007A000F601038D10E00F5F1F4F0F731127F02E1E
:1007B000F601848DF81211C00FB607FCF9CFD601EF
:1007C0005096ED91FC915197808185FFF1CFC60144
:1007D00069830E946E036981EBCF838DE80FF11D61
:1007E000E35AFF4F6083D6015B960C935B9752965A
:1007F000ED91FC915397808180620CC0D601569692
:10080000ED91FC91579760835096ED91FC91519733
:1008100080818064808381E090E00F90DF91CF91B0
:100820001F910F91FF90DF90CF900895BF92CF92CC
:10083000DF92EF92FF92CF93DF93EC016A017B018D
:10084000B22EE889F98982E08083411581EE58074C
:1008500061057105A1F060E079E08DE390E0A7010A
:1008600096010E94260621503109410951095695E9
:10087000479537952795211580E1380798F0E88945
:10088000F989108260E874E88EE190E0A701960192
:100890000E94260621503109410951095695479574
:1008A00037952795EC85FD853083EE85FF85208380
:1008B000188EEC89FD89B082EA89FB89808180618C
:1008C0008083EA89FB89808188608083EA89FB894B
:1008D000808180688083EA89FB8980818F7D808325
:1008E000DF91CF91FF90EF90DF90CF90BF90089570
:1008F0001F920F920FB60F9211242F938F939F93F5
:10090000EF93FF93E0910904F0910A048081E09154
:100910000F04F091100482FD12C0908180911204A6
:100920008F5F8F7320911304821751F0E0911204AE
:10093000F0E0E750FC4F958F8093120401C0808156
:10094000FF91EF919F918F912F910F900FBE0F907C
:100950001F9018951F920F920FB60F9211242F938C
:100960003F934F935F936F937F938F939F93AF9337
:10097000BF93EF93FF9389EF93E00E946E03FF9183
:10098000EF91BF91AF919F918F917F916F915F9107
:100990004F913F912F910F900FBE0F901F90189580
:1009A00089EF93E00E94330321E0892B09F420E0D2
:1009B000822F08951092FC031092FB0388EE93E0BF
:1009C000A0E0B0E08093FD039093FE03A093FF03AB
:1009D000B093000482E191E09093FA038093F903CD
:1009E00085EC90E0909306048093050484EC90E0FD
:1009F000909308048093070480EC90E090930A049D
:100A00008093090481EC90E090930C0480930B0494
:100A100082EC90E090930E0480930D0486EC90E0BD
:100A20009093100480930F041092120410921304F8
:100A30001092140410921504089508950E94F8026B
:100A40000E941D050E94FF00C0E6D3E00E94F10154
:100A50002097E1F30E946003F9CFCF92DF92EF92EB
:100A6000FF920F931F93CF93DF936C017A01EB01F9
:100A7000E60EF71E00E010E0CE15DF0561F069918B
:100A8000D601ED91FC910190F081E02DC601099510
:100A9000080F191FF1CFC801DF91CF911F910F915E
:100AA000FF90EF90DF90CF9008950F931F93CF9317
:100AB000DF93EC010E94A102688779878A879B8770
:100AC000E881F9810084F185E02DCE01099597FF39
:100AD00015C00E94A102088519852A853B85601BE7
:100AE000710B820B930B0C811D812E813F8160174E
:100AF00071078207930720F38FEF9FEFDF91CF916C
:100B00001F910F910895CF93DF93EC01CE010E94C6
:100B1000550597FD11C08D32910571F09C01205350
:100B200031092A30310540F0E881F9810680F781EA
:100B3000E02DCE010995EACFDF91CF910895CF92B4
:100B4000DF92FF920F931F93CF93DF9300D000D0DB
:100B5000CDB7DEB76C01062F0E948305FC0197FD1F
:100B60004BC020E030E0A901F12C112707FD1095C2
:100B7000E017F107E9F0ED32F105C1F0CF01C097C0
:100B80000A97B0F4AAE0B0E00E9448069B01AC01CD
:100B9000CF01AA2797FDA095BA2F280F391F4A1F0A
:100BA0005B1F205331094109510902C0FF24F3940E
:100BB000D601ED91FC910680F781E02DC6012983D5
:100BC0003A834B835C830995C6010E945505FC015D
:100BD000C09729813A814B815C810A9748F2E017DE
:100BE000F10731F2FF2061F066277727CB01621B06
:100BF000730B840B950B06C060E070E0CB0102C064
:100C0000CA01B9010F900F900F900F90DF91CF9113
:100C10001F910F91FF90DF90CF90089561E00C94A9
:100C20009F050895AA1BBB1B51E107C0AA1FBB1F4C
:100C3000A617B70710F0A61BB70B881F991F5A9568
:100C4000A9F780959095BC01CD010895A1E21A2ED7
:100C5000AA1BBB1BFD010DC0AA1FBB1FEE1FFF1F60
:100C6000A217B307E407F50720F0A21BB30BE40BB0
:100C7000F50B661F771F881F991F1A9469F76095F7
:100C80007095809590959B01AC01BD01CF010895B1
:100C90000E945906A59F900DB49F900DA49F800DB2
:100CA000911D11240895EE0FFF1F0590F491E02D82
:100CB0000994A29FB001B39FC001A39F700D811D35
:100CC0001124911DB29F700D811D1124911D089555
:040CD000F894FFCFC6
:100CD4000000960480001400000000007F01000062
:0E0CE4000000B1032D0533034C033E038F03C4
:00000001FF
