:100000000C9435000C945D000C945D000C945D0024
:100010000C945D000C945D000C945D000C945D00EC
:100020000C945D000C945D000C945D000C945D00DC
:100030000C945D000C945D000C945D000C945D00CC
:100040000C94AB010C945D000C945D000C945D006D
:100050000C945D000C945D000C945D000C945D00AC
:100060000C945D000C945D008E0111241FBECFEF37
:10007000D8E0DEBFCDBF11E0A0E0B1E0E6E9F6E0F8
:1000800002C005900D92AC30B107D9F723E0ACE087
:10009000B1E001C01D92AA3EB207E1F710E0CAE646
:1000A000D0E004C02297FE010E944503C836D10764
:1000B000C9F70E949C010C9449030C9400002898F5
:1000C000209A2C98249A0895EFE0F1E080910C0199
:1000D00090910D01A0910E0181939193A19383E0E2
:1000E000EF3DF80799F7089567FF02C0289A01C00D
:1000F00028982C9A2C9866FF02C0289A01C028984C
:100100002C9A2C9865FF02C0289A01C028982C9A36
:100110002C9864FF02C0289A01C028982C9A2C9829
:1001200063FF02C0289A01C028982C9A2C9862FF7D
:1001300002C0289A01C028982C9A2C9861FF02C00E
:10014000289A01C028982C9A2C9860FF02C0289AFF
:1001500001C028982C9A2C9808956F927F929F92B4
:10016000AF92BF92CF92DF92EF92FF920F931F93C5
:10017000CF93DF9300D0CDB7DEB73C01F62E6A01F6
:100180002A8379830E945F0060E0C3010E947400AB
:1001900060E0C3010E94740060E0C3010E9474002B
:1001A00060E0C3010E9474000F2D7981172FE12CAC
:1001B000F12C2A81206EEC14FD04E1F0F801B080EE
:1001C000A1809280622FC3012A830E947400692D4E
:1001D000C3010E9474006A2DC3010E9474006B2D3C
:1001E000C3010E947400FFEFEF1AFF0A0D5F1F4F5B
:1001F0002A81E1CF8EE0E80EF11C84E0F694E794CA
:100200008A95E1F700E010E00E151F0539F060E077
:10021000C3010E9474000F5F1F4FF6CF0F900F9025
:10022000DF91CF911F910F91FF90EF90DF90CF90D2
:10023000BF90AF909F907F906F900C945F00CF9293
:10024000DF92EF92FF928091000120E030E040E0E9
:100250005FE3882359F06091010170910201809160
:100260000301909104010E9430020AC060910101D3
:100270007091020180910301909104010E9431026A
:100280006093010170930201809303019093040134
:10029000C0900101D0900201E0900301F0900401B0
:1002A00020E030E040EA51E4C701B6010E943F037C
:1002B00087FD03C081E08093000120E030E040EA48
:1002C00050E4C701B6010E949502181614F010926E
:1002D000000120E030E0A901C701B6010E943F0300
:1002E00020E030E040E05FE387FD05C0C701B601D4
:1002F0000E94310204C0C701B6010E9430020E9470
:100300009902262F40EF50E06FE071E08FED93E00F
:10031000FF90EF90DF90CF900C94AD0089E091E0DA
:100320009093E0038093DF03ECE0F1E010828FEF25
:1003300081838283089508950E94F5010E949B01A4
:100340000E946400C0E0D0E00E941F012097E1F30A
:100350000E940000F9CF1F920F920FB60F92112446
:100360002F933F938F939F93AF93BF938091E2031B
:100370009091E303A091E403B091E5033091E10390
:1003800023E0230F2D3720F40196A11DB11D05C0D8
:1003900026E8230F0296A11DB11D2093E10380934F
:1003A000E2039093E303A093E403B093E503809109
:1003B000E6039091E703A091E803B091E903019669
:1003C000A11DB11D8093E6039093E703A093E8037A
:1003D000B093E903BF91AF919F918F913F912F917E
:1003E0000F900FBE0F901F901895789484B582607F
:1003F00084BD84B5816084BD85B5826085BD85B5C9
:10040000816085BDEEE6F0E0808181608083E1E877
:10041000F0E01082808182608083808181608083AF
:10042000E0E8F0E0808181608083E1EBF0E08081B2
:1004300084608083E0EBF0E0808181608083EAE784
:10044000F0E080818460808380818260808380810D
:10045000816080838081806880831092C1000895CC
:100460005058BB27AA270ED0D0C0C1D030F0C6D07C
:1004700020F031F49F3F11F41EF4B6C00EF4E09565
:10048000E7FBACC0E92FD2D080F3BA17620773073D
:100490008407950718F071F49EF5EAC00EF4E09514
:1004A0000B2EBA2FA02D0B01B90190010C01CA012E
:1004B000A0011124FF27591B99F0593F50F4503ED9
:1004C00068F11A16F040A22F232F342F4427585FCB
:1004D000F3CF469537952795A795F0405395C9F7E3
:1004E0007EF41F16BA0B620B730B840BBAF091509B
:1004F000A1F0FF0FBB1F661F771F881FC2F70EC03A
:10050000BA0F621F731F841F48F48795779567950C
:10051000B795F7959E3F08F0B3CF9395880F08F0F5
:100520009927EE0F97958795089534D008F481E0C8
:10053000089504D06894B1119CC008957FD088F0CC
:100540009F5790F0B92F9927B751A0F0D1F0660FBF
:10055000771F881F991F1AF0BA95C9F712C0B130DA
:1005600081F086D0B1E0089583C0672F782F882767
:10057000B85F39F0B93FCCF3869577956795B39519
:10058000D9F73EF490958095709561957F4F8F4F88
:100590009F4F0895990F0008550FAA0BE0E8FEEF52
:1005A00016161706E807F907C0F012161306E40737
:1005B000F50798F0621B730B840B950B39F40A2630
:1005C00061F0232B242B252B21F408950A2609F40E
:1005D000A140A6958FEF811D811D089597F99F6712
:1005E00080E870E060E008959FEF80EC08950024BB
:1005F0000A941616170618060906089500240A9488
:1006000012161306140605060895092E0394000C0D
:1006100011F4882352F0BB0F40F4BF2B11F460FF9C
:1006200004C06F5F7F4F8F4F9F4F089557FD9058C5
:10063000440F551F59F05F3F71F04795880F97FBA6
:10064000991F61F09F3F79F0879508951216130660
:100650001406551FF2CF4695F1DF08C0161617068F
:100660001806991FF1CF86957105610508940895C4
:10067000E894BB2766277727CB0197F908958ADF8F
:1006800008F48FEF0895EE0FFF1F0590F491E02D11
:060690000994F894FFCF6D
:0C069600010000704100000000AD0000F9
:00000001FF
