:100000000C9436000C945E000C945E000C945E0020
:100010000C945E000C945E000C945E000C945E00E8
:100020000C945E000C945E000C945E000C945E00D8
:100030000C945E000C945E000C945E000C945E00C8
:100040000C94DD040C945E000C9444030C94760331
:100050000C945E000C945E000C945E000C945E00A8
:100060000C945E000C945E00CA01A60311241FBE0E
:10007000CFEFD8E0DEBFCDBF11E0A0E0B1E0E4E01B
:10008000FEE002C005900D92A432B107D9F724E03A
:10009000A4E2B1E001C01D92AF39B207E1F710E070
:1000A000CCE6D0E004C02297FE010E94ED06C836DF
:1000B000D107C9F70E94EA030C9400070C940000D2
:1000C0002898209A2C98249A089526E040E855E232
:1000D00060E070E089EF93E00E94E202E7E2F1E085
:1000E0008091240190912501A09126018193919303
:1000F000A19383E0E73FF80799F7089567FF02C0EF
:10010000289A01C028982C9A2C9866FF02C0289A39
:1001100001C028982C9A2C9865FF02C0289A01C02B
:1001200028982C9A2C9864FF02C0289A01C028981D
:100130002C9A2C9863FF02C0289A01C028982C9A08
:100140002C9862FF02C0289A01C028982C9A2C98FB
:1001500061FF02C0289A01C028982C9A2C9860FF51
:1001600002C0289A01C028982C9A2C9808956F9262
:100170007F929F92AF92BF92CF92DF92EF92FF92C7
:100180000F931F93CF93DF9300D0CDB7DEB73C0121
:10019000F62E6A012A8379830E94600060E0C30121
:1001A0000E947E0060E0C3010E947E0060E0C30107
:1001B0000E947E0060E0C3010E947E000F2D7981C5
:1001C000172FE12CF12C2A81206EEC14FD04E1F0B4
:1001D000F801B080A1809280622FC3012A830E941F
:1001E0007E00692DC3010E947E006A2DC3010E941A
:1001F0007E006B2DC3010E947E00FFEFEF1AFF0A05
:100200000D5F1F4F2A81E1CF8EE0E80EF11C84E0E4
:10021000F694E7948A95E1F700E010E00E151F05CB
:1002200039F060E0C3010E947E000F5F1F4FF6CFE0
:100230000F900F90DF91CF911F910F91FF90EF9052
:10024000DF90CF90BF90AF909F907F906F900C9475
:100250006000CF92DF92EF92FF9280910B0190911C
:100260000C010E94D7017C0190930C0180930B013B
:10027000809106012AE939E949E15EE3882359F0D2
:1002800060910701709108018091090190910A0124
:100290000E946E050AC0609107017091080180916B
:1002A000090190910A010E946F0560930701709304
:1002B00008018093090190930A01B701882777FD0F
:1002C0008095982F0E940A066B017C019B01AC016E
:1002D00060910701709108018091090190910A01D4
:1002E0000E94BA0687FD0BC0C0920701D092080198
:1002F000E0920901F0920A0181E08093060120E07A
:1003000030E040E450E46091070170910801809171
:10031000090190910A010E94D305181674F080E03B
:1003200090E0A0E4B0E48093070190930801A093CB
:100330000901B0930A0110920601C0900701D09004
:100340000801E0900901F0900A0120E030E0A901E5
:10035000C701B6010E94BA0620E030E040E05FE34A
:1003600087FD05C0C701B6010E946F0504C0C70123
:10037000B6010E946E050E94D705262F40EF50E07F
:1003800067E271E087EF93E0FF90EF90DF90CF900E
:100390000C94B70081E191E09093F8038093F70308
:1003A000E4E2F1E010828FEF818382830895CF929F
:1003B000DF92EF92FF92CF93DF93EC0189EF93E00E
:1003C0000E94FF011816190654F489EF93E00E9469
:1003D000DA046B017C0185E1C816D10410F0CE016E
:1003E00007C089EF93E00E9418020A9739F7C60107
:1003F000DF91CF91FF90EF90DF90CF900895FC01B7
:10040000818D228D90E0805C9F4F821B91098F73BC
:1004100099270895FC01918D828D981731F0828D76
:10042000E80FF11D858D90E008958FEF9FEF0895FF
:10043000FC01918D828D981761F0828DDF01A80FEC
:10044000B11D5D968C91928D9F5F9F73928F90E00E
:1004500008958FEF9FEF08958CE993E0892B49F081
:1004600080E090E0892B29F00E949C0381110C947C
:1004700000000895FC01848DDF01A80FB11DA35A6F
:10048000BF4F2C91848D90E001968F739927848FB4
:10049000A689B7892C93A089B1898C9180648C93AB
:1004A000938D848D981306C00288F389E02D808196
:1004B0008F7D80830895CF93DF93EC01888D88230F
:1004C000C9F0EA89FB89808185FD05C0A889B989C1
:1004D0008C9186FD0FC00FB607FCF5CF808185FF9C
:1004E000F2CFA889B9898C9185FFEDCFCE010E940A
:1004F0003A02E7CFDF91CF910895CF92DF92FF923A
:100500000F931F93CF93DF931F92CDB7DEB76C018C
:1005100081E0D60158968C9358975B969C915B9797
:100520005C968C915C97981307C05096ED91FC9166
:100530005197808185FD2EC0F601038D10E00F5F7D
:100540001F4F0F731127F02EF601848DF81211C082
:100550000FB607FCF9CFD6015096ED91FC9151975B
:10056000808185FFF1CFC60169830E943A026981CB
:10057000EBCF838DE80FF11DE35AFF4F6083D60167
:100580005B960C935B975296ED91FC91539780810B
:1005900080620CC0D6015696ED91FC91579760830E
:1005A0005096ED91FC91519780818064808381E029
:1005B00090E00F90DF91CF911F910F91FF90DF900E
:1005C000CF900895BF92CF92DF92EF92FF92CF9398
:1005D000DF93EC016A017B01B22EE889F98982E0A0
:1005E0008083411581EE580761057105A1F060E037
:1005F00079E08DE390E0A70196010E94BE062150AC
:100600003109410951095695479537952795211587
:1006100080E1380798F0E889F989108260E874E889
:100620008EE190E0A70196010E94BE06215031099B
:10063000410951095695479537952795EC85FD85D4
:100640003083EE85FF852083188EEC89FD89B0828A
:10065000EA89FB89808180618083EA89FB898081C6
:1006600088608083EA89FB89808180688083EA8949
:10067000FB8980818F7D8083DF91CF91FF90EF9008
:10068000DF90CF90BF9008951F920F920FB60F92F8
:1006900011242F938F939F93EF93FF93E09109047D
:1006A000F0910A048081E0910F04F091100482FD22
:1006B00012C09081809112048F5F8F732091130478
:1006C000821751F0E0911204F0E0E750FC4F958F53
:1006D0008093120401C08081FF91EF919F918F91CF
:1006E0002F910F900FBE0F901F9018951F920F9291
:1006F0000FB60F9211242F933F934F935F936F93F5
:100700007F938F939F93AF93BF93EF93FF9389EF63
:1007100093E00E943A02FF91EF91BF91AF919F91B8
:100720008F917F916F915F914F913F912F910F909A
:100730000FBE0F901F90189589EF93E00E94FF0164
:1007400021E0892B09F420E0822F08951092FC0308
:100750001092FB0388EE93E0A0E0B0E08093FD03ED
:100760009093FE03A093FF03B093000487E191E010
:100770009093FA038093F90385EC90E0909306043C
:100780008093050484EC90E0909308048093070420
:1007900080EC90E090930A048093090481EC90E04F
:1007A00090930C0480930B0482EC90E090930E04E1
:1007B00080930D0486EC90E09093100480930F04D6
:1007C0001092120410921304109214041092150443
:1007D000089508950E9433050E94E9030E94650070
:1007E000CCE2D2E00E9429012097E1F30E942C0282
:1007F000F9CFCF92DF92EF92FF920F931F93CF9397
:10080000DF936C017A01EB01E60EF71E00E010E0C9
:10081000CE15DF0561F06991D601ED91FC91019053
:10082000F081E02DC6010995080F191FF1CFC8010D
:10083000DF91CF911F910F91FF90EF90DF90CF90BC
:1008400008950F931F93CF93DF93EC010E94270528
:10085000688779878A879B87E881F9810084F18599
:10086000E02DCE01099597FF15C00E942705088548
:1008700019852A853B85601B710B820B930B0C81BC
:100880001D812E813F81601771078207930720F336
:100890008FEF9FEFDF91CF911F910F910895CF932D
:1008A000DF93EC01CE010E94210497FD11C08D322F
:1008B000910571F09C01205331092A30310540F037
:1008C000E881F9810680F781E02DCE010995EACF14
:1008D000DF91CF910895CF92DF92FF920F931F93F4
:1008E000CF93DF9300D000D0CDB7DEB76C01062FD9
:1008F0000E944F04FC0197FD4BC020E030E0A901AD
:10090000F12C112707FD1095E017F107E9F0ED3202
:10091000F105C1F0CF01C0970A97B0F4AAE0B0E0AA
:100920000E94E0069B01AC01CF01AA2797FDA0958C
:10093000BA2F280F391F4A1F5B1F20533109410965
:10094000510902C0FF24F394D601ED91FC91068079
:10095000F781E02DC60129833A834B835C83099597
:10096000C6010E942104FC01C09729813A814B8174
:100970005C810A9748F2E017F10731F2FF2061F03D
:1009800066277727CB01621B730B840B950B06C080
:1009900060E070E0CB0102C0CA01B9010F900F9076
:1009A0000F900F90DF91CF911F910F91FF90DF90EB
:1009B000CF90089561E00C946B041F920F920FB6D4
:1009C0000F9211242F933F938F939F93AF93BF93D5
:1009D0008091970490919804A0919904B0919A0401
:1009E0003091960423E0230F2D3720F40196A11DAA
:1009F000B11D05C026E8230F0296A11DB11D20934D
:100A000096048093970490939804A0939904B093CC
:100A10009A0480919B0490919C04A0919D04B091B4
:100A20009E040196A11DB11D80939B0490939C048C
:100A3000A0939D04B0939E04BF91AF919F918F911D
:100A40003F912F910F900FBE0F901F9018952FB7C9
:100A5000F894609197047091980480919904909112
:100A60009A042FBF0895789484B5826084BD84B5BC
:100A7000816084BD85B5826085BD85B5816085BD99
:100A8000EEE6F0E0808181608083E1E8F0E01082B2
:100A9000808182608083808181608083E0E8F0E0F3
:100AA000808181608083E1EBF0E0808184608083DD
:100AB000E0EBF0E0808181608083EAE7F0E0808114
:100AC0008460808380818260808380818160808374
:100AD0008081806880831092C10008955058BB27A0
:100AE000AA270ED00DC1FED030F003D120F031F492
:100AF0009F3F11F41EF4F3C00EF4E095E7FBE9C04C
:100B0000E92F0FD180F3BA1762077307840795079F
:100B100018F071F49EF527C10EF4E0950B2EBA2F54
:100B2000A02D0B01B90190010C01CA01A0011124F3
:100B3000FF27591B99F0593F50F4503E68F11A169F
:100B4000F040A22F232F342F4427585FF3CF469530
:100B500037952795A795F0405395C9F77EF41F1652
:100B6000BA0B620B730B840BBAF09150A1F0FF0F1C
:100B7000BB1F661F771F881FC2F70EC0BA0F621F08
:100B8000731F841F48F4879577956795B795F795F8
:100B90009E3F08F0B3CF9395880F08F09927EE0F8A
:100BA00097958795089571D008F481E0089504D051
:100BB0006894B111D9C00895BCD088F09F5790F0C7
:100BC000B92F9927B751A0F0D1F0660F771F881F72
:100BD000991F1AF0BA95C9F712C0B13081F0C3D08D
:100BE000B1E00895C0C0672F782F8827B85F39F02B
:100BF000B93FCCF3869577956795B395D9F73EF4D1
:100C000090958095709561957F4F8F4F9F4F089578
:100C1000E89409C097FB3EF4909580957095619596
:100C20007F4F8F4F9F4F9923A9F0F92F96E9BB274C
:100C30009395F695879577956795B795F111F8CFC8
:100C4000FAF4BB0F11F460FF1BC06F5F7F4F8F4F33
:100C50009F4F16C0882311F096E911C0772321F029
:100C60009EE8872F762F05C0662371F096E8862FC1
:100C700070E060E02AF09A95660F771F881FDAF718
:100C8000880F9695879597F90895990F0008550F45
:100C9000AA0BE0E8FEEF16161706E807F907C0F002
:100CA00012161306E407F50798F0621B730B840B0A
:100CB000950B39F40A2661F0232B242B252B21F4E4
:100CC00008950A2609F4A140A6958FEF811D811D84
:100CD000089597F99F6780E870E060E008959FEFBE
:100CE00080EC089500240A941616170618060906C3
:100CF000089500240A941216130614060506089592
:100D0000092E0394000C11F4882352F0BB0F40F419
:100D1000BF2B11F460FF04C06F5F7F4F8F4F9F4F59
:100D2000089557FD9058440F551F59F05F3F71F0DB
:100D30004795880F97FB991F61F09F3F79F0879542
:100D40000895121613061406551FF2CF4695F1DFCB
:100D500008C0161617061806991FF1CF869571055B
:100D6000610508940895E894BB2766277727CB018F
:100D700097F908958ADF08F48FEF0895A1E21A2EFB
:100D8000AA1BBB1BFD010DC0AA1FBB1FEE1FFF1F2F
:100D9000A217B307E407F50720F0A21BB30BE40B7F
:100DA000F50B661F771F881F991F1A9469F76095C6
:100DB0007095809590959B01AC01BD01CF01089580
:100DC0000E94F106A59F900DB49F900DA49F800DE9
:100DD000911D11240895EE0FFF1F0590F491E02D51
:100DE0000994A29FB001B39FC001A39F700D811D04
:100DF0001124911DB29F700D811D1124911D089524
:040E0000F894FFCF94
:100E040000009F04800001000070411400000000F5
:100E140000B700000000007D02F903FF0118020A78
:040E2400025B02006B
:00000001FF
