:100000000C9436000C945E000C945E000C945E0020
:100010000C945E000C945E000C945E000C945E00E8
:100020000C945E000C945E000C945E000C945E00D8
:100030000C945E000C945E000C945E000C945E00C8
:100040000C94E7040C945E000C94B7020C94E90243
:100050000C945E000C945E000C945E000C945E00A8
:100060000C945E000C945E001901190311241FBE4C
:10007000CFEFD8E0DEBFCDBF11E0A0E0B1E0E8E710
:10008000FBE002C005900D92AE32B107D9F724E033
:10009000AEE2B1E001C01D92A93AB207E1F710E06B
:1000A000CCE6D0E004C02297FE010E94A705C83626
:1000B000D107C9F70E945D030C94BA050C940000A7
:1000C0002898209A2C98249A089526E040E855E232
:1000D00060E070E083E094E00C94550267FF02C09A
:1000E000289A01C028982C9A2C9866FF02C0289A5A
:1000F00001C028982C9A2C9865FF02C0289A01C04C
:1001000028982C9A2C9864FF02C0289A01C028983D
:100110002C9A2C9863FF02C0289A01C028982C9A28
:100120002C9862FF02C0289A01C028982C9A2C981B
:1001300061FF02C0289A01C028982C9A2C9860FF71
:1001400002C0289A01C028982C9A2C9808956F9282
:100150007F929F92AF92BF92CF92DF92EF92FF92E7
:100160000F931F93CF93DF9300D0CDB7DEB73C0141
:10017000F62E6A012A8379830E94600060E0C30141
:100180000E946E0060E0C3010E946E0060E0C30147
:100190000E946E0060E0C3010E946E000F2D798105
:1001A000172FE12CF12C2A81206EEC14FD04E1F0D4
:1001B000F801B080A1809280622FC3012A830E943F
:1001C0006E00692DC3010E946E006A2DC3010E945A
:1001D0006E006B2DC3010E946E00FFEFEF1AFF0A45
:1001E0000D5F1F4F2A81E1CF8EE0E80EF11C84E005
:1001F000F694E7948A95E1F700E010E00E151F05EC
:1002000039F060E0C3010E946E000F5F1F4FF6CF10
:100210000F900F90DF91CF911F910F91FF90EF9072
:10022000DF90CF90BF90AF909F907F906F900C9495
:1002300060008AE091E090930204809301040895A5
:1002400083E094E00E947201181619060CF049C070
:1002500083E094E00E94E40460932E0183E094E044
:100260000E94E40460932F0183E094E00E94E40480
:100270006093300183E094E00E948B010A9701F7BC
:10028000E1E3F1E080912E0190912F01A0913001E6
:1002900081939193A19384E0E130F80799F724E1E9
:1002A00040EF50E061E371E081E094E00E94A7003C
:1002B0004AE050E060912E0183E094E00E94140433
:1002C0004AE050E060912F0183E094E00E94140422
:1002D0004AE050E06091300183E094E00E94140411
:1002E000AFCF0895FC01818D228D90E0805C9F4FFF
:1002F000821B91098F7399270895FC01918D828D3E
:10030000981731F0828DE80FF11D858D90E00895EA
:100310008FEF9FEF0895FC01918D828D981761F00A
:10032000828DDF01A80FB11D5D968C91928D9F5F2C
:100330009F73928F90E008958FEF9FEF08958FE065
:1003400093E0892B49F080E090E0892B29F00E940E
:100350000F0381110C9400000895FC01848DDF01CE
:10036000A80FB11DA35ABF4F2C91848D90E0019628
:100370008F739927848FA689B7892C93A089B18917
:100380008C9180648C93938D848D981306C0028821
:10039000F389E02D80818F7D80830895CF93DF9353
:1003A000EC01888D8823C9F0EA89FB89808185FD6D
:1003B00005C0A889B9898C9186FD0FC00FB607FCCE
:1003C000F5CF808185FFF2CFA889B9898C9185FF0F
:1003D000EDCFCE010E94AD01E7CFDF91CF9108951F
:1003E000CF92DF92FF920F931F93CF93DF931F92D1
:1003F000CDB7DEB76C0181E0D60158968C93589743
:100400005B969C915B975C968C915C97981307C068
:100410005096ED91FC915197808185FD2EC0F6019B
:10042000038D10E00F5F1F4F0F731127F02EF601A1
:10043000848DF81211C00FB607FCF9CFD601509683
:10044000ED91FC915197808185FFF1CFC6016983C1
:100450000E94AD016981EBCF838DE80FF11DE35A56
:10046000FF4F6083D6015B960C935B975296ED919C
:10047000FC915397808180620CC0D6015696ED9115
:10048000FC91579760835096ED91FC915197808134
:100490008064808381E090E00F90DF91CF911F9185
:1004A0000F91FF90DF90CF900895BF92CF92DF928F
:1004B000EF92FF92CF93DF93EC016A017B01B22EA2
:1004C000E889F98982E08083411581EE580761054A
:1004D0007105A1F060E079E08DE390E0A70196015D
:1004E0000E947805215031094109510956954795D7
:1004F00037952795211580E1380798F0E889F98923
:10050000108260E874E88EE190E0A70196010E94F5
:10051000780521503109410951095695479537957C
:100520002795EC85FD853083EE85FF852083188E29
:10053000EC89FD89B082EA89FB89808180618083B2
:10054000EA89FB89808188608083EA89FB898081D0
:1005500080688083EA89FB8980818F7D8083DF9139
:10056000CF91FF90EF90DF90CF90BF9008951F92B2
:100570000F920FB60F9211242F938F939F93EF93A7
:10058000FF93E0911304F09114048081E091190429
:10059000F0911A0482FD12C0908180911C048F5F3B
:1005A0008F7320911D04821751F0E0911C04F0E03C
:1005B000ED5FFB4F958F80931C0401C08081FF91FC
:1005C000EF919F918F912F910F900FBE0F901F90E1
:1005D00018951F920F920FB60F9211242F933F93ED
:1005E0004F935F936F937F938F939F93AF93BF933B
:1005F000EF93FF9383E094E00E94AD01FF91EF91B0
:10060000BF91AF919F918F917F916F915F914F912A
:100610003F912F910F900FBE0F901F90189583E080
:1006200094E00E94720121E0892B09F420E0822FDE
:100630000895109206041092050488EE93E0A0E05D
:10064000B0E08093070490930804A0930904B0934A
:100650000A0480E191E0909304048093030485EC04
:1006600090E09093100480930F0484EC90E09093BA
:1006700012048093110480EC90E090931404809312
:10068000130481EC90E0909316048093150482EC9F
:1006900090E0909318048093170486EC90E0909378
:1006A0001A048093190410921C0410921D041092D5
:1006B0001E0410921F04089508950E943D050E9493
:1006C0005C030E946500CFE9D1E00E9420012097E1
:1006D000E1F30E949F01F9CFCF92DF92EF92FF9258
:1006E0000F931F93CF93DF936C017A01EB01E60E1A
:1006F000F71E00E010E0CE15DF0561F06991D6012C
:10070000ED91FC910190F081E02DC6010995080F53
:10071000191FF1CFC801DF91CF911F910F91FF9069
:10072000EF90DF90CF9008956115710581F0DB01A6
:100730000D900020E9F7AD0141505109461B570BC0
:10074000DC01ED91FC910280F381E02D099480E0C1
:1007500090E008956CE171E00C9494038F929F9265
:10076000AF92BF92CF92DF92EF92FF920F931F93BF
:10077000CF93DF93CDB7DEB7A1970FB6F894DEBF66
:100780000FBECDBF7C01C42EE52FCB01D22E19A206
:1007900021E02D1510F02AE0D22E8E010F5D1F4FA3
:1007A0008D2C912CA12CB12C6C2D7E2FA5019401A8
:1007B0000E9478058C2DD29E8019112401501109B8
:1007C0008A3014F4805D01C0895CF80180832115B2
:1007D00031054105510521F0C22EE32FCA01E4CFB6
:1007E000B801C7010E949403A1960FB6F894DEBF2A
:1007F0000FBECDBFDF91CF911F910F91FF90EF9072
:10080000DF90CF90BF90AF909F908F90089521156B
:10081000310541F4DC01ED91FC910190F081E02D76
:10082000642F09940C94AE030F931F93CF93DF931F
:10083000EC019A01462F50E060E070E00E9407044E
:100840008C01CE010E94AA03800F911FDF91CF91EE
:100850001F910F9108950F931F93CF93DF93EC0196
:100860000E943105688779878A879B87E881F981AB
:100870000084F185E02DCE01099597FF15C00E94F7
:100880003105088519852A853B85601B710B820B14
:10089000930B0C811D812E813F81601771078207A8
:1008A000930720F38FEF9FEFDF91CF911F910F916F
:1008B0000895CF93DF93EC01CE010E942B0497FDA6
:1008C00011C08D32910571F09C01205331092A30FD
:1008D000310540F0E881F9810680F781E02DCE01F5
:1008E0000995EACFDF91CF910895CF92DF92FF92E1
:1008F0000F931F93CF93DF9300D000D0CDB7DEB717
:100900006C01062F0E945904FC0197FD4BC020E0AA
:1009100030E0A901F12C112707FD1095E017F10730
:10092000E9F0ED32F105C1F0CF01C0970A97B0F4BC
:10093000AAE0B0E00E949A059B01AC01CF01AA2772
:1009400097FDA095BA2F280F391F4A1F5B1F205310
:1009500031094109510902C0FF24F394D601ED91F8
:10096000FC910680F781E02DC60129833A834B83F1
:100970005C830995C6010E942B04FC01C097298164
:100980003A814B815C810A9748F2E017F10731F216
:10099000FF2061F066277727CB01621B730B840B66
:1009A000950B06C060E070E0CB0102C0CA01B9013E
:1009B0000F900F900F900F90DF91CF911F910F919B
:1009C000FF90DF90CF90089561E00C9475041F9222
:1009D0000F920FB60F9211242F933F938F939F93F3
:1009E000AF93BF938091A1049091A204A091A3041E
:1009F000B091A4043091A00423E0230F2D3720F4FC
:100A00000196A11DB11D05C026E8230F0296A11D68
:100A1000B11D2093A0048093A1049093A204A093FD
:100A2000A304B093A4048091A5049091A604A0917E
:100A3000A704B091A8040196A11DB11D8093A5043F
:100A40009093A604A093A704B093A804BF91AF917C
:100A50009F918F913F912F910F900FBE0F901F90FC
:100A600018952FB7F8946091A1047091A204809119
:100A7000A3049091A4042FBF0895789484B5826054
:100A800084BD84B5816084BD85B5826085BD85B532
:100A9000816085BDEEE6F0E0808181608083E1E8E1
:100AA000F0E0108280818260808380818160808319
:100AB000E0E8F0E0808181608083E1EBF0E080811C
:100AC00084608083E0EBF0E0808181608083EAE7EE
:100AD000F0E0808184608083808182608083808177
:100AE000816080838081806880831092C100089536
:100AF000A1E21A2EAA1BBB1BFD010DC0AA1FBB1F22
:100B0000EE1FFF1FA217B307E407F50720F0A21B93
:100B1000B30BE40BF50B661F771F881F991F1A9400
:100B200069F760957095809590959B01AC01BD012A
:100B3000CF0108950E94AB05A59F900DB49F900D25
:100B4000A49F800D911D11240895EE0FFF1F0590A5
:100B5000F491E02D0994A29FB001B39FC001A39F1F
:100B6000700D811D1124911DB29F700D811D1124E6
:080B7000911D0895F894FFCFD8
:100B78000000A904800000000000A7000000000099
:100B8800F0016C0372018B017D01CE010D0A006E2C
:0E0B9800616E00696E66006F7666002E0000CA
:00000001FF
