:100000000C9435000C945D000C945D000C945D0024
:100010000C945D000C945D000C945D000C945D00EC
:100020000C945D000C945D000C945D000C945D00DC
:100030000C945D000C945D000C945D000C945D00CC
:100040000C94BF040C945D000C945D000C945D0056
:100050000C945D000C945D000C945D000C945D00AC
:100060000C945D000C945D00B70411241FBECFEF0B
:10007000D8E0DEBFCDBF11E0A0E0B1E0EEE8FCE0EB
:1000800002C005900D92AE30B107D9F724E0AEE082
:10009000B1E001C01D92A631B207E1F710E0CAE657
:1000A000D0E004C02297FE010E943206C836D10774
:1000B000C9F70E949C050C9445060C94000080E052
:1000C00090E00895CF93DF9300D000D000D0CDB75B
:1000D000DEB7AB01DC01ED91FC910190F081E02DE8
:1000E00019821A821B821C821D821E829E012F5F32
:1000F0003F4FBE016C5F7F4F099526960FB6F8946F
:10010000DEBF0FBECDBFDF91CF910895809120015A
:10011000811145C010921201109211018FEF80934E
:100120001501809316018093170180931801809325
:10013000190180931A0181E080931B0110921D0127
:1001400010921C011092140110921301809104046A
:1001500090910504892B31F48FE091E09093050490
:1001600080930404E0910204F0910304309721F09D
:100170008FE091E0958384838FE091E09093030476
:100180008093020484E091E09093100180930F012A
:1001900010921F0110921E0181E08093200120E047
:1001A00030E040EF50E068E271E08FE091E00E94C3
:1001B0007C0480E090E02FEFFC01E85DFE4F20839F
:1001C000218322830396803D32E09307A9F70895A7
:1001D000CF93DF93C6E0D4E081EE888361EECE0159
:1001E0000E94B403188260E0CE010E94B4036CE464
:1001F00070E080E090E0DF91CF910C943805DC0155
:100200008D919C91009739F0DC01ED91FC9101906A
:10021000F081E02D09940895DC018D919C91009767
:1002200039F0DC01ED91FC910280F381E02D09941D
:100230000895209A249A0F960C940C0187FF02C00F
:10024000289A01C028982C9A2C9886FF02C0289AD8
:1002500001C028982C9A2C9885FF02C0289A01C0CA
:1002600028982C9A2C9884FF02C0289A01C02898BC
:100270002C9A2C9883FF02C0289A01C028982C9AA7
:100280002C9882FF02C0289A01C028982C9A2C989A
:1002900081FF02C0289A01C028982C9A2C9880FFD0
:1002A00002C0289A01C028982C9A2C98089580E0C2
:1002B0000E941E0180E00E941E0180E00E941E013B
:1002C00080E00C941E01CF93DF9397FD4F96EC01D5
:1002D00085E0D595C7958A95E1F78FEF0E941E01BD
:1002E00080E00E941E0180E00E941E0180E00E94CA
:1002F0001E01219790F7DF91CF910895FF920F9300
:100300001F93CF93DF93EC0180910E018F5F982FA5
:10031000977090930E0180FD02C080E001C080E8DC
:1003200091FD8064947009F0806290E1F92EF80EDE
:1003300020E030E000E011E0FE01E20FF31F6285F3
:10034000662331F070E0C8010E94D0056F5F01C0E4
:1003500060E067834F2D469F412D1124448366231F
:1003600011F0615067832F5F3F4F2330310521F734
:10037000DF91CF911F910F91FF900895AF92BF929F
:10038000CF92DF92EF92FF920F931F93CF93DF9361
:10039000CDB7DEB72F970FB6F894DEBF0FBECDBF37
:1003A0006C018A01F901DC011C968C917A836983C6
:1003B0005C834B8390819B8791819C8792819D87F1
:1003C000813029F4CE0101960E947E0106C01A8672
:1003D000198618861F821E821D821E86BFE0CB0EE4
:1003E000D11CC6010E94FF000E945701E12CF12C94
:1003F000E016F1060CF04EC0E981FA81208122233B
:1004000029F03D81230F08F42FEF01C020E03B8548
:10041000239F212D11248FEF2F870E941E012F85EE
:10042000822F0E941E01E981FA812181222329F075
:100430003E81230F08F42FEF01C020E03C85239F6D
:10044000212D1124A22EB12CBA2CAA2422812223E0
:1004500029F03F81230F08F42FEF01C020E03D85F4
:10046000239F212D1124A22A8B2D0E941E018A2D4B
:100470000E941E0188859D81891B8D8389859E81AF
:10048000891B8E838A859F81891B8F838FEFE81A52
:10049000F80AAECFC8010E946301C6010E940C0198
:1004A0002F960FB6F894DEBF0FBECDBFDF91CF9170
:1004B0001F910F91FF90EF90DF90CF90BF90AF9082
:1004C0000895AF92BF92CF92DF92EF92FF920F9377
:1004D0001F93CF93DF93CDB7DEB72F970FB6F89466
:1004E000DEBF0FBECDBF6C018A01F901DC011C9695
:1004F0008C917A8369835C834B8390819B87918104
:100500009C8792819D87813029F4CE0101960E94BB
:100510007E0106C01A86198618861F821E821D82D9
:1005200083E08E87BFE0CB0ED11CC6010E94FF0086
:100530000E945701E12CF12CE016F1060CF05BC093
:10054000E981FA812081222329F03D81230F08F4DB
:100550002FEF01C020E03B85239F212D11248FEF39
:100560002F870E941E012F85822F0E941E01E98184
:10057000FA812181222329F03E81230F08F42FEFF5
:1005800001C020E03C85239F212D1124A22EB12CF7
:10059000BA2CAA242281222329F03F81230F08F4B8
:1005A0002FEF01C020E03D85239F212D1124A22A99
:1005B0008B2D0E941E018A2D0E941E018E8529818D
:1005C0003A81280F311D3A8329832B813C812150A8
:1005D00031093C832B8388859D81891B8D83898587
:1005E0009E81891B8E838A859F81891B8F838FEFD4
:1005F000E81AF80AA1CFC8010E946301C6010E944F
:100600000C012F960FB6F894DEBF0FBECDBFDF9161
:10061000CF911F910F91FF90EF90DF90CF90BF90FF
:10062000AF9008958F929F92AF92BF92EF92FF92F8
:100630000F931F93CF93DF93EC01188219821A82D4
:100640004423B9F1E0E0F0E08B010A5F1F4F7B012A
:1006500089E0E80EF11C842E912CA12CB12CD8013C
:10066000AE0FBF1F2C91D701AE0FBF1F6C9122237D
:10067000E1F06623D1F030E040E050E02F5F3F4FE3
:100680004F4F5F4F70E080E090E06F5F7F4F8F4F84
:100690009F4F0E94AC059B01AC01C501B4010E94B3
:1006A000AC05DE01AE0FBF1F8C933196E330F10530
:1006B000B1F6CE01DF91CF911F910F91FF90EF9096
:1006C000BF90AF909F908F900895CF92DF92EF925E
:1006D000FF92CF93DF93EC018091FC039091FD0397
:1006E0009C012F5F3F4F3093FD032093FC0386173F
:1006F00097079CF10E9409059B01AC01E091FC0366
:10070000F091FD0388EE93E0E89FB001E99F700D42
:10071000F89F700D1124882777FD8095982FC09041
:10072000F803D090F903E090FA03F090FB032C1942
:100730003D094E095F090E94E4053A83298310921E
:10074000FD031092FC030E9409056093F803709367
:10075000F9038093FA039093FB03DF91CF91FF900D
:10076000EF90DF90CF900895AF92BF92CF92DF923B
:10077000EF92FF920F931F93CF93DF9300D01F92BE
:10078000CDB7DEB78C01B62EF80183819481A581A7
:10079000B681892B8A2B8B2BD1F00E941505C09036
:1007A000FE03D090FF03E0900004F09001046C1968
:1007B0007D098E099F09D8011396CD90DD90ED90AB
:1007C000FC9016976C157D058E059F05E8F20E943A
:1007D00015056093FE037093FF03809300049093CC
:1007E0000104E0900404F0900504E114F10451F1D7
:1007F000F701A484D80111968D919C9112978436AB
:10080000910508F41486D701ED91FC91C280D38044
:100810004B2DB701CE0101960E941203F7014585C9
:100820005685628173819E012F5F3F4FC701F6019C
:100830000995D7011C96AC921C971496ED90FC90EC
:100840001597D3CF69E170E0C8010E9465030F904E
:100850000F900F90DF91CF911F910F91FF90EF902C
:10086000DF90CF90BF90AF900895CF92DF92EF923C
:10087000FF920F931F93CF93DF93EC014423F1F08A
:100880006115710581F19B0140E050E060E472E484
:100890008FE090E00E940606CB80DC80ED80FE8039
:1008A00089019A010C151D052E053F0510F49701CD
:1008B00086010B831C832D833E8315C06115710552
:1008C00071F09B0140E050E060E472E48FE090E062
:1008D0000E9406062B833C834D835E8304C01B82EB
:1008E0001C821D821E82DF91CF911F910F91FF907C
:1008F000EF90DF90CF900895CF92DF92EF92FF922A
:100900000F931F93CF93DF93EC016B018A01790161
:10091000121613061CF07A0100E010E0E881F9815C
:100920000480F581E02DCE010995C801880F991F3B
:10093000800F911F8C0D9D1D9B838A83FE86ED8603
:10094000E881F9810084F185E02DCE01099541E02F
:10095000BC0186E094E00E943504CE01DF91CF9186
:100960001F910F91FF90EF90DF90CF9008958FEF40
:1009700080930604109208041092070408951F92B1
:100980000F920FB60F9211242F933F938F939F9343
:10099000AF93BF9380910E0490910F04A091100427
:1009A000B091110430910D0423E0230F2D3720F472
:1009B0000196A11DB11D05C026E8230F0296A11DB9
:1009C000B11D20930D0480930E0490930F04A09307
:1009D0001004B09311048091120490911304A0911B
:1009E0001404B09115040196A11DB11D8093120449
:1009F00090931304A0931404B0931504BF91AF9186
:100A00009F918F913F912F910F900FBE0F901F904C
:100A100018952FB7F89460910E0470910F0480918F
:100A20001004909111042FBF08953FB7F89480915E
:100A3000120490911304A0911404B091150426B5EA
:100A4000A89B05C02F3F19F00196A11DB11D3FBF06
:100A50006627782F892F9A2F620F711D811D911D96
:100A600042E0660F771F881F991F4A95D1F70895B6
:100A7000CF92DF92EF92FF92CF93DF936B017C01D5
:100A80000E941505EB01C114D104E104F10489F0C1
:100A90000E94AB050E9415056C1B7D0B683E7340E0
:100AA00090F381E0C81AD108E108F108C851DC4F81
:100AB000EACFDF91CF91FF90EF90DF90CF90089534
:100AC000789484B5826084BD84B5816084BD85B529
:100AD000826085BD85B5816085BDEEE6F0E08081F0
:100AE00081608083E1E8F0E0108280818260808311
:100AF000808181608083E0E8F0E080818160808394
:100B0000E1EBF0E0808184608083E0EBF0E08081C5
:100B100081608083EAE7F0E0808184608083808167
:100B2000826080838081816080838081806880830F
:100B30001092C100089508950E9460050E949B05CF
:100B40000E948600C0E0D0E00E94E8002097E1F318
:100B50000E940000F9CF0895DB018F939F930E94BC
:100B60002506BF91AF91A29F800D911DA39F900D6F
:100B7000B29F900D11240895AA1BBB1B51E107C021
:100B8000AA1FBB1FA617B70710F0A61BB70B881F1D
:100B9000991F5A95A9F780959095BC01CD010895AC
:100BA00097FB072E16F4009407D077FD09D00E941A
:100BB000BC0507FC05D03EF4909581959F4F0895A4
:100BC000709561957F4F0895A1E21A2EAA1BBB1B59
:100BD000FD010DC0AA1FBB1FEE1FFF1FA217B30709
:100BE000E407F50720F0A21BB30BE40BF50B661F1F
:100BF000771F881F991F1A9469F7609570958095E3
:100C000090959B01AC01BD01CF010895052E97FB86
:100C10001EF400940E941D0657FD07D00E94E405B3
:100C200007FC03D04EF40C941D065095409530956A
:100C300021953F4F4F4F5F4F089590958095709548
:100C400061957F4F8F4F9F4F08950E943606A59F55
:100C5000900DB49F900DA49F800D911D11240895B7
:100C6000EE0FFF1F0590F491E02D0994A29FB001B3
:100C7000B39FC001A39F700D811D1124911DB29FD0
:0E0C8000700D811D1124911D0895F894FFCF71
:0E0C8E0000000000BE016102190162005F005B
:00000001FF
